:020000040000FA
:0600000078EFBFF01200D2
:020006001200E6
:060008002FEFA3F012002F
:02000E008D80E3
:020010001200DC
:040012008D901200BB
:020016001200D6
:06001800D2EFA2F012007D
:02001E000F00D1
:100020007F7F0100B2020000010000007E7F01001E
:10003000B1020000010000007A7F0100A002000070
:1000400004000000787F0100AA0200000200000006
:10005000777F0100B002000001000000747F010002
:100060004D0F000003000000707F01009C020000A3
:10007000040000006E7F0100A802000002000000E2
:100080006A7F01009802000004000000397F01002F
:10009000AF02000001000000607F01007702000055
:1000A0000A0000005E7F0100A602000002000000BE
:1000B0005C7F0100A402000002000000587F0100E4
:1000C0009402000004000000567F01007E0E000034
:0400D000020000002A
:0C00D400D9CFE6FFE1CFD9FFFE0EDB50D4
:1000E0000201A45D01E141D0FE0EA45D1BE01C0EE7
:1000F000E66EE66A910EE66E010EE66EA4511C0DE8
:10010000F3CF14F0F4CF15F0000E1426020E1522D2
:1001100014C0E6FF15C0E6FF83ECB4F0166E060EC1
:10012000E15E1650FE0EDBCFA4F2DB50FE0801E1CB
:100130001CD01C0EE66EE66AFE0EDB501C0DF3CFE3
:1001400014F0F4CF15F0000E1426020E152214C080
:10015000E6FF15C0E6FF910EE66E010EE66E83EC3B
:10016000B4F0166E060EE15E1650E552E7CFD9FFE9
:1001700012000201A451A55D01E156D0FE0EA55D5D
:1001800035E0270EE66EE66A010EE66E6A0EE66E52
:10019000010EE66EA5511C0DF3CFE9FFF4CFEAFF87
:1001A000000EE926020EEA221B0EE926000EEA22C4
:1001B000EF50E66EA5511C0DF3CFE9FFF4CFEAFF37
:1001C000000EE926020EEA22EECF14F0EFCF15F072
:1001D000270E145E000E155A14C0E6FF15C0E6FF88
:1001E000E5EC2DF0166E080EE15E1650A4C2A5F2E5
:1001F000270EE66EE66AACC1E6FF91C114F092C12B
:1002000015F0145E000E155A14C0E6FF15C0E6FF87
:10021000010EE66E6A0EE66E010EE66EE5EC2DF05E
:10022000166E080EE15E16501200D9CFE6FFE1CF40
:10023000D9FF0B0EE126410EF36E090EF3CFDBFF63
:10024000100EF36E0A0EF3CFDBFF01016851691146
:100250000FE195EC78F006C068F107C069F1FF0E78
:1002600001016817070E6917000E6827040E69233D
:100270003C0EE66EE66AE66AB90EE66E010EE66EC2
:10028000D1ECB4F0146E050EE15E1450010EDB6A81
:10029000DF6ADF50146E156A020E145C000E1558EA
:1002A00001E33ED1DFCFE6FF15DFE5524A0E146EC3
:1002B0007F0E156E010E166EDFCF17F0186A196AE1
:1002C000060E0C6E0D6A0E6A17C007F018C008F013
:1002D00019C009F0E8ECBCF004C017F005C018F034
:1002E00006C019F014501724F36E15501820F46E40
:1002F00016501920F86EF4CFF7FFF3CFF6FFF62A69
:10030000000EF722F8220800080EF5CFDBFF4A0E98
:10031000146E7F0E156E010E166EDFCF17F0186A81
:10032000196A060E0C6E0D6A0E6A17C007F018C027
:1003300008F019C009F0E8ECBCF004C017F005C0E3
:1003400018F006C019F014501724F36E1550182039
:10035000F46E16501920F86EF4CFF7FFF3CFF6FFC6
:10036000020EF626000EF722F8220900020EF5CF43
:10037000DBFF0A00030EF5CFDBFF4A0E146E7F0E83
:10038000156E010E166EDFCF17F0186A196A060E89
:100390000C6E0D6A0E6A17C007F018C008F019C07D
:1003A00009F0E8ECBCF004C017F005C018F006C076
:1003B00019F014501724F36E15501820F46E1650CF
:1003C0001920F86EF4CFF7FFF3CFF6FF040EF626F0
:1003D000000EF722F8220900040EF5CFDBFF0A0019
:1003E000050EF5CFDBFF080EDB5001E098D0090EBB
:1003F000DBCF08F00A0EDBCF09F0060E08C0DBFFEA
:10040000070E09C0DBFF020EDBCF16F0030EDBCFB9
:1004100017F0270E1626000E1722010E1626000EC4
:100420001722040EDB501624146E050EDB50172025
:10043000156E010E1426000E1522D950090FE96E13
:10044000DACFEAFF1450EE261550ED22090EDBCF6D
:1004500014F00A0EDBCF15F0166A176AD8807D0EED
:1004600014541F0E1554000E1654000E175401E2BA
:10047000EDD7080EDBCFACF1060EDBCF91F1070E06
:10048000DBCF92F1270E01019127000E9223020E7D
:10049000DB509125936F030EDB509221946F010E78
:1004A0009327000E9423040EDB509325956F050EC1
:1004B000DB509421966F0D0EA76FA8975ADE4A0E57
:1004C000146E7F0E156E010E166EDFCF17F0186AD0
:1004D000196A060E0C6E0D6A0E6A17C007F018C076
:1004E00008F019C009F0E8ECBCF004C017F005C032
:1004F00018F006C019F014501724F36E1550182088
:10050000F46E16501920F86EF4CFF7FFF3CFF6FF14
:100510000800F5CF90F102EC21F0DF2ABAD6FFD720
:100520000B0EE15C02E2E16AE552E16EE552E7CFD3
:10053000D9FF1200D9CFE6FFE1CFD9FFE652DF6A3B
:10054000DF50146E156A020E145C000E155801E39C
:10055000EDD0DFCFE6FFBEDDE5520D0E0101A75D58
:1005600001E0E2D006DEF70EDB500101905D01E014
:10057000DBD0180E8D6F020E8E6FFA0EDB5010E17D
:10058000F80EDBCF7AF1F90EDBCF7BF1A887040EF2
:10059000A76FF80EDBCFAAF1F90EDBCFABF1C2D01B
:1005A000000E685D040E695906E3880ED880685510
:1005B000130E695503E2686B040E696F68C17AF126
:1005C00069C17BF1682B000E6923F80EDBCF78F14F
:1005D000F90EDBCF79F1E0ECBAF006C09FF107C06D
:1005E000A0F108C0A1F109C0A2F10101A889FA0E89
:1005F000DB50040A50E0070A1DE0020A03E0030A88
:1006000001E090D0FB0EDBCF80F1FC0EDBCF81F15F
:10061000FD0EDBCF82F1FE0EDBCF83F1FA0EDB5055
:10062000020802E0000E01D0010E8C95E8B08C8526
:10063000A76B78D0FB0EDBCF18F0FC0EDBCF19F0E8
:10064000FD0EDB501824166EFE0EDB501920176EBF
:10065000F80EDB501624146EF90EDB501720156EC1
:1006600014507A19AA6F15507B19AB6FFB0EDBCFB4
:1006700080F1FC0EDBCF81F1FD0EDBCF82F1FE0EAF
:10068000DBCF83F18F6B270E6A6F6B6B6C6B6D6BBF
:10069000020EA76F47D0FB0EDBCFE9FFFC0EDBCFCE
:1006A000EAFF020EE926000EEA22EECF18F0EFCFA5
:1006B00019F0FB0EDBCFE9FFFC0EDBCFEAFF185091
:1006C000EE24166E1950EE20176EF80EDB5016242D
:1006D000146EF90EDB501720156E14507A19AA6F9C
:1006E00015507B19AB6F0A0EE66EE66AFB0EDBCF88
:1006F000E6FFFC0EDBCFE6FF800EE66E010EE66E37
:1007000083ECB4F0146E060EE15E14500101050E88
:10071000A76F010EE66E020EE66E03EC19F0E552CD
:10072000E55200D0DF5004D0DF2A0AD7FE0E00D0F9
:10073000E552E552E7CFD9FF1200D9CFE6FFE1CF6E
:10074000D9FFFE0EDB50146E156A020E145C000E0B
:10075000155802E3010E0DD0FE0EDBCFE6FFBADC2A
:10076000E5520101A9A903D0A999010E02D0000EFA
:1007700000D0E552E7CFD9FF1200D9CFE6FFE1CF95
:10078000D9FFFE0EDB50146E156A020E145C000ECB
:10079000155802E3000E0DD0FE0EDBCFE6FF9ADC0B
:1007A000E552070E0101A75D02E0000E01D0010E27
:1007B00000D0E552E7CFD9FF1200D9CFE6FFE1CF55
:1007C000D9FFFE0EDB50146E156A020E145C000E8B
:1007D000155801E365D0FE0EDBCFE6FF7BDCE5526A
:1007E0009BC19DF19CC19EF10101A751080A4EE0F9
:1007F000010A4CE0050A4AE0020A45E0050A2DE03C
:100800000D0A15E0010A13E0070A0EE0020A0CE0E7
:10081000010A0AE0060A08E0040A01E037D002EC07
:1008200091F002EC21F03CD002EC21F039D0010E25
:10083000E66E110EE66E03EC19F0E552E552010189
:100840007C517D1101E106D07651971902E1775173
:100850009819EDE1080EA76F23D0010EE66E110E78
:10086000E66E03EC19F0E552E55201017C517D1171
:1008700001E106D07651971902E177519819EDE11F
:100880000C0EA76F0DD00D0EA76F0AD0E66A140EDE
:10089000E66E03EC19F0E552E55202EC21F000D0CF
:1008A000E552E7CFD9FF1200D9CFE6FFE1CFD9FF5C
:1008B000FE0EDB50146E156A020E145C000E155805
:1008C00001E30DD0FE0EDBCFE6FF6AEC00F0E5524F
:1008D0000101A897FE0EDBCFE6FF6FDFE552E55280
:1008E000E7CFD9FF1200D9CFE6FFE1CFD9FFFE0E47
:1008F000DB50146E156A020E145C000E155803E3EB
:10090000F36AF46A25D0FE0EDBCFE6FF6AEC00F056
:10091000E5522FDC0A0EE66EE66A800EE66E010EE8
:10092000E66EAD0EE66E010EE66E83ECB4F0146E6C
:10093000060EE15E145078C1B7F179C1B8F1AD0E81
:10094000146E010E156E14C0F3FF15C0F4FF00D035
:10095000E552E7CFD9FF1200D9CFE6FFE1CFD9FFAB
:10096000FE0EDB50146E156A020E145C000E155854
:1009700001E317D0FE0EDBCFE6FF6AEC00F0E55294
:10098000B9EC00F001017651971902E177519819FD
:1009900008E0010EE66E100EE66E03EC19F0E5526B
:1009A000E552E552E7CFD9FF1200D9CFE6FFE1CFFC
:1009B000D9FFE652FE0EDB50146E156A020E145C6F
:1009C000000E155803E3F36AF46A40D0FE0EDBCF45
:1009D000E6FF6AEC00F0E552A7C1DFFF070EDF5C1F
:1009E00006E00B0EDF5C03E0F36AF46A2FD001012E
:1009F0009951975D9A5198591BE39151935D166EE9
:100A000094519255176E1606000E175A9951975D1C
:100A1000186E98519A55196E1850165C146E19502C
:100A20001758156E14C0F3FF15C0F4FF0FD00ED089
:100A30009751995D146E9A519855156E1406000ED3
:100A4000155A14C0F3FF15C0F4FF00D0E552E5526B
:100A5000E7CFD9FF1200D9CFE6FFE1CFD9FF020ED1
:100A6000E126FE0EDB50146E156A020E145C000EB9
:100A7000155802E3000E8DD0FE0EDBCFE6FF6AECC8
:100A800000F0E552FE0EDBCFE6FF8FDFE552F3CF3D
:100A9000DEFFF4CFDDFFD9CFE9FFDACFEAFFEE507A
:100AA000ED1003E1000E75D00ED0D9CFE9FFDACFFB
:100AB000EAFF010EEE1801E1ED5005E1FE0EDBCF7D
:100AC000E6FF4ADFE5520101A951010B19E1DECF32
:100AD00014F0DDCF15F09151935D166E945192553F
:100AE000176ED890173216321450165C15501758DE
:100AF00007E3FE0EDBCFE6FF2FDFE5520101A98100
:100B0000010EE66EE66AE66ED950FD0FE66EFF0E48
:100B1000DA20E66EACC1E6FF97C1E6FF98C1E6FFBA
:100B2000E5EC2DF0146E080EE15E14500101972BD8
:100B3000000E98239351975D9451985904E391C105
:100B400097F192C198F1D9CFE9FFDACFEAFF010E10
:100B5000EE1801E1ED5006E1FE0EDBCFE6FFFCDE14
:100B6000E55215D0A8BB13D0A88B07ECBBF006C08C
:100B700014F007C015F0166A176A060E1426000E48
:100B800015221622172214C0A3F115C0A4F1010EDC
:100B900000D0146E020EE15C02E2E16AE552E16E01
:100BA0001450E552E7CFD9FF1200D9CFE6FFE1CFCD
:100BB000D9FF060EE126040EDB6A050EDB6AFE0E87
:100BC000DB50146E156A020E145C000E155803E318
:100BD000F36AF46A0FD1FE0EDBCFE6FF6AEC00F099
:100BE000E552FE0EDBCFE6FFE0DEE552020EF3CF6C
:100BF000DBFF030EF4CFDBFFD950020FE96EDACF33
:100C0000EAFFEE50ED1008E1FE0EDBCFE6FFA4DEBA
:100C1000E552F36AF46AEED0020EDBCFDEFFDBCFE3
:100C2000DDFFDBCF14F0030EDBCF15F0FA0EDBCFC8
:100C300016F0FB0EDBCF17F01450165C155017584A
:100C400005E2FA0EDBCFDEFFDBCFDDFF0101A951AC
:100C5000010B1BE1020EDBCF14F0030EDBCF15F00E
:100C60009151935D166E94519255176ED89017322C
:100C700016321450165C1550175807E3FE0EDBCFE2
:100C8000E6FF6ADEE5520101A981DE5097250001E9
:100C9000146EDD50010198210001156E0101935180
:100CA000145C9451155848E39751935D146E945118
:100CB0009855156E040E14C0DBFF050E15C0DBFF42
:100CC000040EDBCFE6FF050EDBCFE6FF010EE66E7E
:100CD000FC0EDBCFE6FFFD0EDBCFE6FFACC1E6FF8F
:100CE00097C1E6FF98C1E6FFE5EC2DF0146E080E03
:100CF000E15E1450040EDBCF14F0050EDBCF15F0CF
:100D0000D950FC0FE96EFF0EDA20EA6E1450EE2681
:100D10001550ED22040EDBCF14F0050EDBCF15F0DD
:100D2000D9CFE9FFDACFEAFF1450EE5E1550ED5A45
:100D300091C197F192C198F1DECFE6FFDDCFE6FFDA
:100D4000010EE66EFC0EDBCFE6FFFD0EDBCFE6FF0D
:100D5000ACC1E6FF97C1E6FF98C1E6FFE5EC2DF0D8
:100D6000146E080EE15E1450D9CFE9FFDACFEAFF26
:100D7000EE5001019727EE509823020EDBCF14F0BE
:100D8000030EDBCF15F0FA0EDBCF16F0FB0EDBCF38
:100D900017F01450165C1550175806E3FE0EDBCF03
:100DA000E6FFDADDE55215D0A8BB13D0A88B07EC1F
:100DB000BBF006C014F007C015F0166A176A060EDD
:100DC0001426000E15221622172214C0A3F115C0F6
:100DD000A4F1040EDBCF16F0050EDBCF17F0DE50CA
:100DE0001624146EDD501720156E14C0F3FF15C0C5
:100DF000F4FF00D0060EE15C02E2E16AE552E16E2A
:100E0000E552E7CFD9FF1200D9CFE6FFE1CFD9FFF6
:100E1000060EE126040EDB6A050EDB6AFE0EDB50D1
:100E2000146E156A020E145C000E155803E3F36A83
:100E3000F46A14D1FE0EDBCFE6FF6AEC00F0E55257
:100E4000FE0EDBCFE6FFB1DDE552020EF3CFDBFF96
:100E5000030EF4CFDBFFD950020FE96EDACFEAFFC1
:100E6000EE50ED1008E1FE0EDBCFE6FF75DDE5523A
:100E7000F36AF46AF3D00101A951010B1BE1020EE0
:100E8000DBCF14F0030EDBCF15F09151935D166E9E
:100E900094519255176ED890173216321450165C32
:100EA0001550175807E3FE0EDBCFE6FF55DDE55280
:100EB0000101A981020EDBCFDEFFDBCFDDFFDBCF3F
:100EC00014F0030EDBCF15F0F90EDBCF16F0FA0E9F
:100ED000DBCF17F01450165C1550175805E2F90EC9
:100EE000DBCFDEFFDBCFDDFFDE5097250001146E88
:100EF000DD50010198210001156E01019351145C30
:100F0000945115584CE39751935D146E9451985534
:100F1000156E040E14C0DBFF050E15C0DBFF040EBA
:100F2000DBCFE6FF050EDBCFE6FFFB0EDBCFE6FFF8
:100F3000FC0EDBCFE6FFFD0EDBCFE6FFACC1E6FF2C
:100F400097C1E6FF98C1E6FF8AEC2EF0146E080EFA
:100F5000E15E1450040EDBCF14F0050EDBCF15F06C
:100F6000166AD950FB0FE96EFF0EDA20EA6E1450B4
:100F7000EE261550EE221650EE22040EDBCF14F0B2
:100F8000050EDBCF15F0D9CFE9FFDACFEAFF145019
:100F9000EE5E1550ED5A91C197F192C198F1DECFF6
:100FA000E6FFDDCFE6FFFB0EDBCFE6FFFC0EDBCF7F
:100FB000E6FFFD0EDBCFE6FFACC1E6FF97C1E6FF23
:100FC00098C1E6FF8AEC2EF0146E080EE15E145014
:100FD000D9CFE9FFDACFEAFFEE5001019727EE50B3
:100FE0009823020EDBCF14F0030EDBCF15F0F90EC1
:100FF000DBCF16F0FA0EDBCF17F01450165C15504D
:10100000175806E3FE0EDBCFE6FFA6DCE55215D04F
:10101000A8BB13D0A88B07ECBBF006C014F007C028
:1010200015F0166A176A060E1426000E15221622EF
:10103000172214C0A3F115C0A4F1040EDBCF16F0E3
:10104000050EDBCF17F0DE501624146EDD5017208E
:10105000156E14C0F3FF15C0F4FF00D0060EE15C5E
:1010600002E2E16AE552E16EE552E7CFD9FF1200F4
:10107000D9CFE6FFE1CFD9FFFC0EDBCF16F0FD0E96
:10108000DBCF17F016C0E6FF17C0E6FFFC0EDBCF84
:10109000E6FFFD0EDBCFE6FF5BECB5F0E552E55277
:1010A000F3CF18F0F4CF19F018C0E6FF19C0E6FF2F
:1010B000FC0EDBCFE6FFFD0EDBCFE6FFFE0EDBCF47
:1010C000E6FF73DD1A6E050EE15E1A50E552E7CFBA
:1010D00017F0E552E7CF16F01650F324146E1750B0
:1010E000F420156E14C0F3FF15C0F4FF00D0E552D4
:1010F000E7CFD9FF1200D9CFE6FFE1CFD9FFFB0E32
:10110000DBCFE6FFFC0EDBCFE6FFFD0EDBCFE6FF1D
:1011100069ECB5F0E552E552E55207C01AF008C097
:101120001BF01AC0E6FF1BC0E6FFFB0EDBCFE6FF9D
:10113000FC0EDBCFE6FFFD0EDBCFE6FFFE0EDBCFC6
:10114000E6FF62DE1C6E060EE15E1C50F3CF17F068
:10115000F4CF18F0196AD950FB0FE96EFF0EDA20B0
:10116000EA6EEE501724146EEE501820156EEE50F5
:101170001920166E14C007F015C008F016C009F04B
:1011800000D0E552E7CFD9FF1200D9CFE6FFE1CF7B
:10119000D9FF040EE126FE0EDB50146E156A020E16
:1011A000145C000E155803E3F36AF46A31D0FE0EA6
:1011B000DBCFE6FF6AEC00F0E55201019151935D4F
:1011C000146E94519255156E1406000E155A020EA7
:1011D00014C0DBFF030E15C0DBFFFE0EDBCFE6FF06
:1011E000D5EC04F0E552F3CFDEFFF4CFDDFF020EC5
:1011F000DBCF16F0030EDBCF17F0DE50165C146E5B
:10120000DD501758156E14C0F3FF15C0F4FF00D061
:10121000040EE15C02E2E16AE552E16EE552E7CFDD
:10122000D9FF1200D9CFE6FFE1CFD9FFFE0EDBCF09
:10123000E6FF1ED8E552F3CF14F0F4CF15F01450AA
:10124000151012E0FE0EDBCFE6FF6AEC00F0E5526F
:101250009BC19DF19CC19EF1010EE66E100EE66EE3
:1012600003EC19F0E552E552E552E7CFD9FF120041
:10127000D9CFE6FFE1CFD9FFFE0EDB50146E156A21
:10128000020E145C000E155803E3F36AF46A33D0BF
:10129000FE0EDBCFE6FF6AEC00F0E55201019D5146
:1012A0009B5D9E519C590CE39D519B5D146E9C511E
:1012B0009E55156E14C0F3FF15C0F4FF1CD01BD053
:1012C0009D51955D166E96519E55176E010E162610
:1012D000000E172293519B5D186E9C519455196E08
:1012E00016501824146E17501920156E14C0F3FFF1
:1012F00015C0F4FF00D0E552E7CFD9FF1200D9CFD7
:10130000E6FFE1CFD9FF020EE126FE0EDBCFE6FFBE
:10131000AFDFE552F3CFDEFFF4CFDDFFD9CFE9FF3A
:10132000DACFEAFFEE50ED1002E1000E54D0FE0ECF
:10133000DBCFE6FF6AEC00F0E552D950FC0FE96E16
:10134000FF0EDA20EA6EEE50ED1016E0010EE66EAA
:10135000E66AACC1E6FF9DC1E6FF9EC1E6FFE66E10
:10136000FC0EDBCFE6FFFD0EDBCFE6FFE5EC2DF05C
:10137000146E080EE15E145001019D2B000E9E2399
:101380009D51955D9E51965904E293C19DF194C182
:101390009EF1D9CFE9FFDACFEAFF010EEE1801E1A5
:1013A000ED5002E1A98515D0A8BB13D0A88B07EC9E
:1013B000BBF006C014F007C015F0166A176A1F0EBE
:1013C0001426000E15221622172214C0A3F115C0F0
:1013D000A4F1010E00D0146E020EE15C02E2E16A9B
:1013E000E552E16E1450E552E7CFD9FF1200D9CF94
:1013F000E6FFE1CFD9FF040EE126020EDB6A030E01
:10140000DB6AFE0EDBCFE6FF33DFE552F3CFDEFF14
:10141000F4CFDDFFD9CFE9FFDACFEAFFEE50ED10D0
:1014200003E1F36AF46AFFD0FE0EDBCFE6FF6AEC5D
:1014300000F0E552FA0EDBCF14F0FB0EDBCF15F017
:10144000DECF16F0DDCF17F01450165C155017588C
:101450000AE2D9CFE9FFDACFEAFFFA0EEECFDBFFDF
:10146000FB0EEDCFDBFFFA0EDB5001019D250001E5
:10147000146EFB0EDB5001019E210001156E01016F
:101480001450955D1550965957E29D51955D146E17
:1014900096519E55156E010E1426000E1522020E51
:1014A00014C0DBFF030E15C0DBFFD950FC0FE96E43
:1014B000FF0EDA20EA6EEE50ED102AE0020EDBCFCE
:1014C000E6FF030EDBCFE6FFACC1E6FF9DC1E6FF02
:1014D0009EC1E6FF010EE66EFC0EDBCFE6FFFD0EC1
:1014E000DBCFE6FFE5EC2DF0146E080EE15E145044
:1014F000020EDBCF14F0030EDBCF15F0D950FC0F3A
:10150000E96EFF0EDA20EA6E1450EE261550ED2239
:10151000020EDBCF14F0030EDBCF15F0D950FA0F1B
:10152000E96EFF0EDA20EA6E1450EE5E1550ED5AA9
:1015300093C19DF194C19EF1D950FC0FE96EFF0E4D
:10154000DA20EA6EEE50ED101AE0FA0EDBCFE6FF7D
:10155000FB0EDBCFE6FFACC1E6FF9DC1E6FF9EC1FF
:10156000E6FF010EE66EFC0EDBCFE6FFFD0EDBCFE5
:10157000E6FFE5EC2DF0146E080EE15E1450FA0E55
:10158000DBCF08F0FB0EDBCF09F0085001019D27EF
:1015900009509E23020EDBCF14F0030EDBCF15F0B3
:1015A000D950FA0FE96EFF0EDA20EA6E1450EE26DB
:1015B0001550ED22DECF16F0DDCF17F0FA0EDB501E
:1015C000165C146EFB0EDB501758156EFA0EDBCF4F
:1015D00018F0FB0EDBCF19F01450185C1550195899
:1015E00002E3A98515D0A8BB13D0A88B07ECBBF0EC
:1015F00006C014F007C015F0166A176A1F0E1426ED
:10160000000E15221622172214C0A3F115C0A4F152
:10161000FA0EDBCF14F0FB0EDBCF15F014C0F3FF96
:1016200015C0F4FF00D0040EE15C02E2E16AE5526D
:10163000E16EE552E7CFD9FF1200D9CFE6FFE1CF47
:10164000D9FF040EE126FE0EDB50146E156A020E61
:10165000145C000E155803E3F36AF46A2DD0FE0EF5
:10166000DBCFE6FF6AEC00F0E55201019351955D96
:10167000146E96519455156E020E14C0DBFF030EC6
:1016800015C0DBFFFE0EDBCFE6FFF2DDE552F3CF48
:10169000DEFFF4CFDDFF020EDBCF16F0030EDBCF53
:1016A00017F0DE50165C146EDD501758156E14C01E
:1016B000F3FF15C0F4FF00D0040EE15C02E2E16A22
:1016C000E552E16EE552E7CFD9FF1200D9CFE6FF30
:1016D000E1CFD9FF060EE126FE0EDB50146E156A2F
:1016E000020E145C000E155809E2D950FA0FE96E8B
:1016F000FF0EDA20EA6EEE50ED1003E1F36AF46AB1
:10170000FDD0FE0EDBCFE6FF6AEC00F0E552FE0EE8
:10171000DBCFE6FFADDDE552020EF3CFDBFF030EBC
:10172000F4CFDBFFFA0EDBCF16F0FB0EDBCF17F0AA
:10173000F80EDB501624146EF90EDB501720156ED0
:10174000020EDBCF18F0030EDBCF19F01450185C3B
:101750001550195814E2020EDBCF16F0030EDBCF42
:1017600017F0F80EDB50165C146EF90EDB501758AC
:10177000156EFA0E14C0DBFFFB0E15C0DBFFF80E72
:10178000DB5001019D250001146EF90EDB500101B3
:101790009E210001156E14C0DEFF15C0DDFFDECFF7
:1017A00014F0DDCF15F001011450955D15509659D8
:1017B00012E29351955D146E96519455156E010E7B
:1017C0001426000E1522D9CFE9FFDACFEAFF145014
:1017D000EE5E1550ED5ADE50955D146EDD50965953
:1017E000156E010E1426000E1522040E14C0DBFF28
:1017F000050E15C0DBFFFA0EDBCF14F0FB0EDBCFBE
:1018000015F0040EDBCF16F0050EDBCF17F01450E9
:10181000165C155017581BE3FA0EDBCFE6FFFB0EE4
:10182000DBCFE6FFACC1E6FFDECFE6FFDDCFE6FFB4
:10183000010EE66EFC0EDBCFE6FFFD0EDBCFE6FF12
:10184000E5EC2DF0146E080EE15E14504CD0040E41
:10185000DBCFE6FF050EDBCFE6FFACC1E6FFDECF58
:10186000E6FFDDCFE6FF010EE66EFC0EDBCFE6FF06
:10187000FD0EDBCFE6FFE5EC2DF0146E080EE15E09
:101880001450FA0EDBCF16F0FB0EDBCF17F0040E70
:10189000DB50165C146E050EDB501758156E14C025
:1018A000E6FF15C0E6FFACC1E6FF93C1E6FF94C1B9
:1018B000E6FF010EE66E040EDBCF1AF0050EDBCF5D
:1018C0001BF0FC0EDB501A24186EFD0EDB501B20A3
:1018D000196E18C0E6FF19C0E6FFE5EC2DF01C6E8E
:1018E000080EE15E1C50FA0EDBCF14F0FB0EDBCFCE
:1018F00015F014C0F3FF15C0F4FF00D0060EE15C34
:1019000002E2E16AE552E16EE552E7CFD9FF12004B
:10191000D9CFE6FFE1CFD9FFE652FC0EDBCFE6FFE1
:10192000FD0EDBCFE6FF010EE66EE66AD9CFE6FFDD
:10193000DACFE6FFFE0EDBCFE6FFC8DE146E070E41
:10194000E15E1450DF5000D0E552E552E7CFD9FFF9
:101950001200D9CFE6FFE1CFD9FF300EE126FE0E0F
:10196000DB50146E156A020E145C000E155809E265
:10197000D950FA0FE96EFF0EDA20EA6EEE50ED1044
:1019800003E1F36AF46AF2D2FE0EDBCFE6FF6AEC03
:1019900000F0E552FE0EDBCFE6FF6ADCE552F3CF46
:1019A00016F0F4CF17F0F80EDB50165C146EF90E3B
:1019B000DB501758156E020E14C0DBFF030E15C066
:1019C000DBFF020EDBCF14F0030EDBCF15F0FA0EB7
:1019D000DBCF16F0FB0EDBCF17F01650145C175060
:1019E000155803E2F368F468C1D2D950F60FE96ED6
:1019F000FF0EDA20EA6EEE50ED101DE0020EDBCF96
:101A000014F0030EDBCF15F0F60EDBCF16F0F70E59
:101A1000DBCF17F01450165C155017580CE2F60E79
:101A2000DBCF08F0F70EDBCF09F0020E08C0DBFFBA
:101A3000030E09C0DBFFF80EDB5001019D250001FC
:101A4000146EF90EDB5001019E210001156E060E89
:101A500014C0DBFF070E15C0DBFF060EDBCF14F052
:101A6000070EDBCF15F001011450955D1550965906
:101A700013E29351955D146E96519455156E010EB7
:101A80001426000E1522D950060FE96EDACFEAFFB0
:101A90001450EE5E1550ED5A060EDBCFDEFFDBCFA5
:101AA000DDFFDB50955D0001146E070EDB50010178
:101AB00096590001156E010E1426000E1522040E13
:101AC00014C0DBFF050E15C0DBFFF80EDBCF08F0FE
:101AD000F90EDBCF09F0060E08C0DBFF070E09C0C8
:101AE000DBFFFA0EDBCF08F0FB0EDBCF09F0080EB0
:101AF00008C0DBFF090E09C0DBFFFC0EDBCF08F0DE
:101B0000FD0EDBCF09F00A0E08C0DBFF0B0E09C08B
:101B1000DBFFFC0EDBCFE9FFDB2AFD0EDBCFEAFFAC
:101B200001E3DB2A0D0EEFCFDBFF0F0EDB6AF50EB4
:101B3000DB5016E0610EF36E0D0EDBCFF4FFF350B9
:101B4000F45C0EE30D0EDB507A080AE3E00E146E2F
:101B50000D0EDBCFE7FF1450E7260D0EE7CFDBFFBE
:101B6000200EF36E0E0EF3CFDBFFDBCF14F0040E6E
:101B7000DBCF15F0050EDBCF16F01450155C000E10
:101B8000165806E2040EDB50E76E0E0EE7CFDBFFC1
:101B90000E0EDBCF14F0020EDBCF15F0030EDBCF01
:101BA00016F01450155C000E165806E2020EDB50BB
:101BB000E76E0E0EE7CFDBFF0E0EDBCFE6FFE66A29
:101BC000ACC1E6FFDECFE6FFDDCFE6FF010EE66E3D
:101BD000D950100FE66E000EDA20E66EE5EC2DF01F
:101BE000146E080EE15E14500E0EDB50DE26000E61
:101BF000DD220E0EDB50146E156AD950040FE96E0B
:101C0000DACFEAFF1450EE5E1550ED5AD950040FAA
:101C1000E96EDACFEAFFEE50ED1008E193C1DEFF86
:101C200094C1DDFF040EDB68050EDB68F50EDB50AA
:101C300001E1E5D00C0EDB6A0E0EDB50F36E0C0EEC
:101C4000DBCFF4FFF350F45C01E3D8D0D950100F90
:101C5000156EDACF16F00C0EDB500F011524E96E6D
:101C6000000E1620EA6EEFCF14F0610E145C1FE335
:101C7000D950100F176EDACF18F00C0EDB50172466
:101C8000E96E000E1820EA6EEF507A0810E3E00EBD
:101C9000166ED950100F146EDACF15F00C0EDB5003
:101CA0001424E96E000E1520EA6E1650EF26D95066
:101CB000100F146EDACF15F00C0EDB501424E96E01
:101CC000000E1520EA6EEF50F36E0D0EDB50F35C44
:101CD00053E1FA0EDB06DBCF14F0FB0E01E2DB066C
:101CE000DBCF15F0145015101FE1060EDBCF18F0F6
:101CF000070EDBCF19F0080EDB50185C166E090ECC
:101D0000DB501958176E0C0EDB5000011624146EB0
:101D1000000E1720156E010E1426000E152214C099
:101D2000F3FF15C0F4FF22D1FC0EDBCFE9FFDB2A65
:101D3000FD0EDBCFEAFF01E3DB2A0D0EEFCFDBFF69
:101D4000010EF36E0F0EF3CFDBFF610EF36E0D0E7F
:101D5000DBCFF4FFF350F45C0EE30D0EDB507A089A
:101D60000AE3E00E146E0D0EDBCFE7FF1450E726FA
:101D70000D0EE7CFDBFF3FD0080EDBCF08F0090EDA
:101D8000DBCF09F0FA0E08C0DBFFFB0E09C0DBFF5A
:101D90000F0EDB5030E00A0EDBCF08F00B0EDBCF6E
:101DA00009F0FC0E08C0DBFFFD0E09C0DBFFFC0ED6
:101DB000DBCFE9FFDB2AFD0EDBCFEAFF01E3DB2A05
:101DC0000D0EEFCFDBFF610EF36E0D0EDBCFF4FFD8
:101DD000F350F45C0EE30D0EDB507A080AE3E00EDC
:101DE000146E0D0EDBCFE7FF1450E7260D0EE7CF84
:101DF000DBFF0F0EDB6A0C0EDB2A1ED788D00C0E21
:101E0000DB6A0E0EDB50F36E0C0EDBCFF4FFF350EB
:101E1000F45C01E37CD0D950100F146EDACF15F0CA
:101E20000C0EDB500F011424E96E000E1520EA6E33
:101E3000EF50F36E0D0EDB50F35C3DE1FA0EDB0666
:101E4000DBCF14F0FB0E01E2DB06DBCF15F0145004
:101E500015101FE1060EDBCF18F0070EDBCF19F0CF
:101E6000080EDB50185C166E090EDB501958176E01
:101E70000C0EDB5000011624146E000E1720156E98
:101E8000010E1426000E152214C0F3FF15C0F4FF36
:101E90006DD0FC0EDBCFE9FFDB2AFD0EDBCFEAFFC6
:101EA00001E3DB2A0D0EEFCFDBFF010EF36E0F0E09
:101EB000F3CFDBFF29D0080EDBCF08F0090EDBCF14
:101EC00009F0FA0E08C0DBFFFB0E09C0DBFF0F0EA6
:101ED000DB501AE00A0EDBCF08F00B0EDBCF09F067
:101EE000FC0E08C0DBFFFD0E09C0DBFFFC0EDBCFE4
:101EF000E9FFDB2AFD0EDBCFEAFF01E3DB2A0D0E53
:101F0000EFCFDBFF0F0EDB6A0C0EDB2A7AD70E0E4B
:101F1000DB50146E156AD950020FE96EDACFEAFF72
:101F20001450EE5E1550ED5A020EDBCF14F0030E86
:101F3000DBCF15F0FA0EDBCF16F0FB0EDBCF17F080
:101F40001650145C1750155803E2F368F4680ED06D
:101F50000E0EDB50146E156AD950060FE96EDACFFB
:101F6000EAFF1450EE261550ED22FAD5300EE15C52
:101F700002E2E16AE552E16EE552E7CFD9FF1200D5
:101F8000D9CFE6FFE1CFD9FF310EE126FE0EDB50BF
:101F9000146E156A020E145C000E155809E2D95031
:101FA000F90FE96EFF0EDA20EA6EEE50ED1003E154
:101FB000F36AF46A22D3FE0EDBCFE6FF6AEC00F090
:101FC000E552FE0EDBCFE6FF38EC09F0E552F3CF29
:101FD00016F0F4CF17F0F70EDB50165C146EF80E07
:101FE000DB501758156E020E14C0DBFF030E15C030
:101FF000DBFF020EDBCF14F0030EDBCF15F0F90E82
:10200000DBCF16F0FA0EDBCF17F01650145C17502A
:10201000155803E2F368F468F0D2D950F50FE96E71
:10202000FF0EDA20EA6EEE50ED101DE0020EDBCF5F
:1020300014F0030EDBCF15F0F50EDBCF16F0F60E25
:10204000DBCF17F01450165C155017580CE2F50E44
:10205000DBCF08F0F60EDBCF09F0020E08C0DBFF85
:10206000030E09C0DBFFF70EDB5001019D250001C7
:10207000146EF80EDB5001019E210001156E060E54
:1020800014C0DBFF070E15C0DBFF060EDBCF14F01C
:10209000070EDBCF15F001011450955D15509659D0
:1020A00013E29351955D146E96519455156E010E81
:1020B0001426000E1522D950060FE96EDACFEAFF7A
:1020C0001450EE5E1550ED5A060EDBCFDEFFDBCF6F
:1020D000DDFFDB50955D0001146E070EDB50010142
:1020E00096590001156E010E1426000E1522040EDD
:1020F00014C0DBFF050E15C0DBFFF70EDBCF08F0C9
:10210000F80EDBCF09F0060E08C0DBFF070E09C092
:10211000DBFFF90EDBCF08F0FA0EDBCF09F0080E7B
:1021200008C0DBFF090E09C0DBFFD950FB0FE96EC9
:10213000FF0EDA20EA6E0A0EEECFDBFF0B0EEECFBB
:10214000DBFF0C0EEECFDBFFD950FB0FE96EFF0E6D
:10215000DA20EA6EEFCFF6FFEE2AEFCFF7FF000EA0
:10216000EE22EFCFF8FFEE2208000E0EF5CFDBFFD8
:10217000100EDB6AF40EDB5016E0610EF36E0E0EED
:10218000DBCFF4FFF350F45C0EE30E0EDB507A0865
:102190000AE3E00E146E0E0EDBCFE7FF1450E726C5
:1021A0000E0EE7CFDBFF200EF36E0F0EF3CFDBFF3B
:1021B000DBCF14F0040EDBCF15F0050EDBCF16F0ED
:1021C0001450155C000E165806E2040EDB50E76E44
:1021D0000F0EE7CFDBFF0F0EDBCF14F0020EDBCFCD
:1021E00015F0030EDBCF16F01450155C000E1658D8
:1021F00006E2020EDB50E76E0F0EE7CFDBFF0F0E9D
:10220000DBCFE6FFE66AACC1E6FFDECFE6FFDDCF5F
:10221000E6FF010EE66ED950110FE66E000EDA20D1
:10222000E66EE5EC2DF0146E080EE15E14500F0E14
:10223000DB50DE26000EDD220F0EDB50146E156A19
:10224000D950040FE96EDACFEAFF1450EE5E155054
:10225000ED5AD950040FE96EDACFEAFFEE50ED10D7
:1022600008E193C1DEFF94C1DDFF040EDB68050EBB
:10227000DB68F40EDB5001E1F7D00D0EDB6A0F0EC8
:10228000DB50F36E0D0EDBCFF4FFF350F45C01E393
:10229000EAD0D950110F156EDACF16F00D0EDB50C3
:1022A0000F011524E96E000E1620EA6EEFCF14F030
:1022B000610E145C1FE3D950110F176EDACF18F0BE
:1022C0000D0EDB501724E96E000E1820EA6EEF5059
:1022D0007A0810E3E00E166ED950110F146EDACFA3
:1022E00015F00D0EDB501424E96E000E1520EA6E79
:1022F0001650EF26D950110F146EDACF15F00D0ECF
:10230000DB501424E96E000E1520EA6EEF50F36ED8
:102310000E0EDB50F35C5BE1F90EDB06DBCF14F055
:10232000FA0E01E2DB06DBCF15F0145015101FE1A9
:10233000060EDBCF18F0070EDBCF19F0080EDB50CE
:10234000185C166E090EDB501958176E0D0EDB5017
:1023500000011624146E000E1720156E010E1426AF
:10236000000E152214C0F3FF15C0F4FF46D1D9505A
:10237000FB0FE96EFF0EDA20EA6EEFCFF6FFEE2AD2
:10238000EFCFF7FF000EEE22EFCFF8FFEE220800AE
:102390000E0EF5CFDBFF010EF36E100EF3CFDBFF59
:1023A000610EF36E0E0EDBCFF4FFF350F45C0EE320
:1023B0000E0EDB507A080AE3E00E146E0E0EDBCF31
:1023C000E7FF1450E7260E0EE7CFDBFF49D0080EDB
:1023D000DBCF08F0090EDBCF09F0F90E08C0DBFFF8
:1023E000FA0E09C0DBFF100EDB503AE0D9500A0F9D
:1023F000E96EDACFEAFFFB0EEECFDBFFFC0EEECF8D
:10240000DBFFFD0EEECFDBFFD950FB0FE96EFF0EB9
:10241000DA20EA6EEFCFF6FFEE2AEFCFF7FF000EDD
:10242000EE22EFCFF8FFEE2208000E0EF5CFDBFF15
:10243000610EF36E0E0EDBCFF4FFF350F45C0EE38F
:102440000E0EDB507A080AE3E00E146E0E0EDBCFA0
:10245000E7FF1450E7260E0EE7CFDBFF100EDB6A16
:102460000D0EDB2A0CD79AD00D0EDB6A0F0EDB5057
:10247000F36E0D0EDBCFF4FFF350F45C01E38ED06E
:10248000D950110F146EDACF15F00D0EDB500F017D
:102490001424E96E000E1520EA6EEF50F36E0E0E56
:1024A000DB50F35C45E1F90EDB06DBCF14F0FA0EEE
:1024B00001E2DB06DBCF15F0145015101FE1060E0C
:1024C000DBCF18F0070EDBCF19F0080EDB50185CDD
:1024D000166E090EDB501958176E0D0EDB500001F9
:1024E0001624146E000E1720156E010E1426000E11
:1024F000152214C0F3FF15C0F4FF7FD0D950FB0F95
:10250000E96EFF0EDA20EA6EEFCFF6FFEE2AEFCF8C
:10251000F7FF000EEE22EFCFF8FFEE2208000E0EBE
:10252000F5CFDBFF010EF36E100EF3CFDBFF33D0E0
:10253000080EDBCF08F0090EDBCF09F0F90E08C05A
:10254000DBFFFA0E09C0DBFF100EDB5024E0D95090
:102550000A0FE96EDACFEAFFFB0EEECFDBFFFC0ECF
:10256000EECFDBFFFD0EEECFDBFFD950FB0FE96EA8
:10257000FF0EDA20EA6EEFCFF6FFEE2AEFCFF7FF7D
:10258000000EEE22EFCFF8FFEE2208000E0EF5CF80
:10259000DBFF100EDB6A0D0EDB2A68D70F0EDB5057
:1025A000146E156AD950020FE96EDACFEAFF1450A3
:1025B000EE5E1550ED5A020EDBCF14F0030EDBCFAA
:1025C00015F0F90EDBCF16F0FA0EDBCF17F0165030
:1025D000145C1750155803E2F368F4680ED00F0E20
:1025E000DB50146E156AD950060FE96EDACFEAFF98
:1025F0001450EE261550ED22D6D5310EE15C02E2E4
:10260000E16AE552E16EE552E7CFD9FF1200D9CF7A
:10261000E6FFE1CFD9FFF80EDBCFE6FFF90EDBCF07
:10262000E6FFFA0EDBCFE6FFFB0EDBCFE6FFFC0E8C
:10263000DBCFE6FF010EE66EE66AD950FD0FE66ECF
:10264000FF0EDA20E66EFE0EDBCFE6FFA9EC0CF003
:10265000146E0A0EE15E145000D0E552E7CFD9FFA8
:102660001200D9CFE6FFE1CFD9FF0A0EE126DF6ADB
:10267000DF50146E156A020E145C000E155801E34B
:10268000F0D3DFCFE6FF6AEC00F0E552030EDB6A21
:10269000010EDB6A020EDB6A0101A951020B03E1A4
:1026A000A951040B12E0BFEC8AF000090EE0100EF5
:1026B000F36E030EF3CFDBFF0101A951040B01E020
:1026C000010EE76E010EE7CFDBFF0101A8AB15D0CD
:1026D00007ECBBF001010650A35D146E0750A4592E
:1026E000156E153404E214500008000E155405E36D
:1026F000100EF36E030EF3CFDBFFA8AD15D007EC81
:10270000BBF001010650A55D146E0750A659156E69
:10271000153404E214500008000E155405E3100EA1
:10272000F36E030EF3CFDBFF0B0EA75D17E107EC93
:10273000BBF001010650A55D146E0750A659156E39
:10274000153404E214500008000E155407E3110E6E
:10275000F36E030EF3CFDBFF0C0EA76F040EA75D25
:1027600001E02ED1040EDB6A050EDB6A040EDBCF1E
:1027700014F0050EDBCF15F0030E145C000E155897
:1027800001E31ED1040EDBCFE9FF050EDBCFEAFF2C
:10279000140EEA02F3CFEAFFE902F3CFE9FFF450A7
:1027A000EA26B90EE926010EEA22100EE926000EED
:1027B000EA22EE50ED1001E103D1040EDBCFE9FF78
:1027C000050EDBCFEAFF140EEA02F3CFEAFFE902BF
:1027D000F3CFE9FFF450EA26B90EE926010EEA220A
:1027E000100EE926000EEA22EECF14F0EFCF15F01E
:1027F000AA51141802E1AB51151801E0DBD0B9EC75
:1028000000F00A0EE66EE66A040EDBCFE9FF050E65
:10281000DBCFEAFF140EEA02F3CFEAFFE902F3CFBF
:10282000E9FFF450EA26B90EE926010EEA22E9CFC3
:1028300014F0EACF15F014C0E6FF15C0E6FF800ED5
:10284000E66E010EE66E83ECB4F0166E060EE15EE7
:102850001650040EDBCFE9FF050EDBCFEAFF140EA6
:10286000EA02F3CFEAFFE902F3CFE9FFF450EA26E8
:10287000B90EE926010EEA220A0EE926000EEA2226
:10288000EECF78F1EDCF79F1040EDBCFE9FF050E45
:10289000DBCFEAFF140EEA02F3CFEAFFE902F3CF3F
:1028A000E9FFF450EA26B90EE926010EEA220C0EE1
:1028B000E926000EEA22EECF72F1EECF73F1EECFF1
:1028C00074F1EFCF75F10101722B7323742375231B
:1028D00082518025166E83518121176E16507825FE
:1028E000146E17507921156E14507A19AA6F15506D
:1028F0007B19AB6F120EF36E030EF3CFDBFF060EE8
:10290000A76F040EDBCF14F0050EDBCF15F0020E1F
:10291000D8801456000E1556140E1502F3CF15F07C
:102920001402F3CF14F0F450152614C0E6FF15C0BE
:10293000E6FF010EE66EE76E040EDBCF16F0050E25
:10294000DBCF17F0E7501626000E1722140E1702E1
:10295000F3CF17F01602F3CF16F0F4501726B90E86
:102960001626010E172216C0E6FF17C0E6FF010E5D
:10297000E66E040EDBCF18F0050EDBCF19F0140E57
:102980001902F3CF19F01802F3CF18F0F4501926FA
:10299000B90E1826010E192218C0E6FF19C0E6FF6D
:1029A000E5EC2DF01A6E080EE15E1A500101F16B94
:1029B000F26B06D0040EDB2A050E01E3DB2AD6D625
:1029C000030EDB500EE0010EDB5002E0000E01D0E2
:1029D000010EE66E030EDBCFE6FF03EC19F0E552C5
:1029E000E5520101A8B952D0070EA75D4EE1E0EC17
:1029F000BAF001019F51065C146EA0510758156E84
:102A0000A1510858166EA2510958176E0001800E88
:102A1000171401E023D20101A851070B060819E1A0
:102A2000A851080B01E0010EE76E030EE7CFDBFFB4
:102A3000DFCFE6FFDDEC03F0E552DFCFE6FFDDECB4
:102A400003F0E552030EDB5003E101010E0EA76F08
:102A500005D2B9EC00F0020EE66E100EE66ED3DB86
:102A6000E552E552E0ECBAF006C09FF107C0A0F1D4
:102A700008C0A1F109C0A2F1740E01019F27350E13
:102A8000A023060EA123000EA223E8D1E0ECBAF0A9
:102A900001019F51065C146EA0510758156EA1519B
:102AA0000858166EA2510958176E0001800E1714AF
:102AB00001E0D4D1B9EC00F00101A7510C0A01E109
:102AC00056D1060A01E13CD1030A01E12ED1010AE7
:102AD00001E114D10F0A01E1FDD00C0A01E1FAD0A5
:102AE0000D0A01E1D8D0030A01E1C0D0060A01E1D4
:102AF00088D0010A74E0030A25E0010A01E04ED102
:102B0000F9EC90F000091DE00101010EA76F8CA502
:102B10000ED0E66E80C1E6FF81C1E6FF82C1E6FF0E
:102B200045EC91F0E552E552E552E5520AD0E66EE9
:102B300080C1E6FF81C1E6FF16EC91F0E552E55257
:102B4000E5522CD1D950060FE66E000EDA20E66E63
:102B500079EC91F0E552E552000940E002EC91F089
:102B6000000928E0060EDBCF80F1070EDBCF81F1F4
:102B7000080EDBCF82F1090EDBCF83F10101020EDB
:102B8000A76F82518025166E83518121176E1650D2
:102B90007825146E17507921156E14507A19AA6F82
:102BA00015507B19AB6F8F6B270E6A6F6B6B6C6B5D
:102BB0006D6B14D0E0ECBAF006C09FF107C0A0F135
:102BC00008C0A1F109C0A2F1740E01019F27350EC2
:102BD000A023060EA123000EA223A76BDFD007ECD3
:102BE000BBF006C0A3F107C0A4F1800EE66E010E93
:102BF000E66ED2ECA8F0E552E5520101030EA76F94
:102C0000CDD0840EE66E010EE66E800EE66E010EED
:102C1000E66E3FECA9F0E552E552E552E5520009B7
:102C20001AE107ECBBF00101A351065C146EA4513C
:102C30000758156E14506A5D15506B590BE2060E5D
:102C40008F5D06E28F2BD8906A376B376C376D3704
:102C5000020EA76FA3D0020EF36E030EF3CFDBFFBD
:102C6000010EDB6A0101050EA76F98D0020EF36E0C
:102C7000030EF3CFDBFFDE52010EDD6E040E8F5D1F
:102C800009E3040E8F6F200E6A6FEF0E6B6F090E53
:102C90006C6F6D6B83D0020E8F5D09E2120EF36EC6
:102CA000030EF3CFDBFFDE52010EDD6E12D0A8A7BC
:102CB0000BD0140EF36E030EF3CFDBFF010EF36E99
:102CC000020EF3CFDBFF05D0020EF36E030EF3CF3F
:102CD000DBFF64D0050E8F5D09E2100EF36E030E6C
:102CE000F3CFDBFFDE52010EDD6E07D0080EA76FBB
:102CF000110EF36E030EF3CFDBFF50D0050E8F5D88
:102D000009E2110EF36E030EF3CFDBFFDE52010E6C
:102D1000DD6E0AD0140EF36E030EF3CFDBFF010E4F
:102D2000F36E020EF3CFDBFF39D0140EF36E030EF9
:102D3000F3CFDBFF010EF36E020EF3CFDBFF2ED0DD
:102D4000050E8F5D09E2100EF36E030EF3CFDBFF6D
:102D5000DE52010EDD6E0AD0140EF36E030EF3CFB9
:102D6000DBFF010EF36E020EF3CFDBFF17D0050E73
:102D70008F5D09E2110EF36E030EF3CFDBFFDE521F
:102D8000010EDD6E0AD0140EF36E030EF3CFDBFFDF
:102D9000010EF36E020EF3CFDBFF00D0030EDB500B
:102DA00058E0010EDB504DE001018F2BD8906A37BF
:102DB0006B376C376D379951765D146E77519A5534
:102DC000156E040E14C0DBFF050E15C0DBFF995114
:102DD000765D9A5177590FE29151935D146E94513B
:102DE0009255156ED950040FE96EDACFEAFF1450F0
:102DF000EE261550ED22040EDBCF14F0050EDBCFCE
:102E000015F0166A176A14506E5F15506F5B1650F6
:102E1000705B1750715B040EDBCF08F0050EDBCF43
:102E200009F008507C2709507D2399C176F19AC199
:102E300077F1E66A030EDBCFE6FFE5D9E552E5520E
:102E400008D0010EE66E030EDBCFE6FFDCD9E552BB
:102E5000E552020EDB5002E002EC21F0DF2A38EFEF
:102E600013F0040EDB6A050EDB6A040EDBCF14F0F0
:102E7000050EDBCF15F0030E145C000E155801E3B0
:102E8000B1D0040EDBCFE9FF050EDBCFEAFF140E55
:102E9000EA02F3CFEAFFE902F3CFE9FFF450EA26B2
:102EA000B90EE926010EEA22100EE926000EEA22EA
:102EB000EE50ED1001E196D0040EDBCFE9FF050ED8
:102EC000DBCFEAFF140EEA02F3CFEAFFE902F3CF09
:102ED000E9FFF450EA26B90EE926010EEA22120EA5
:102EE000E926000EEA22EECF16F0EFCF17F016C05B
:102EF000E6FF17C0E6FF07ECBBF0E552E7CF17F09F
:102F0000E552E7CF16F01650065C146E17500758BE
:102F1000156EDC0ED8801454010E15545DE2040EBB
:102F2000DBCF14F0050EDBCF15F0020ED88014565F
:102F3000000E1556140E1502F3CF15F01402F3CF40
:102F400014F0F450152614C0E6FF15C0E6FF010E7C
:102F5000E66EE76E040EDBCF16F0050EDBCF17F042
:102F6000E7501626000E1722140E1702F3CF17F0A3
:102F70001602F3CF16F0F4501726B90E1626010EDE
:102F8000172216C0E6FF17C0E6FF010EE66E040E1C
:102F9000DBCF18F0050EDBCF19F0140E1902F3CFBA
:102FA00019F01802F3CF18F0F4501926B90E1826AC
:102FB000010E192218C0E6FF19C0E6FFE5EC2DF05E
:102FC0001A6E080EE15E1A500101F16BF26B040EED
:102FD000DB06050E01E2DB06040EDB2A050E01E32B
:102FE000DB2A43D70A0EE15C02E2E16AE552E16EB8
:102FF000E552E7CFD9FF1200D9CFE6FFE1CFD9FFE5
:10300000250EE126FD0EDBCFE9FFFE0EDBCFEAFF4A
:10301000140EEECFDBFF150EEECFDBFF160EEECF5C
:10302000DBFF170EEECFDBFFFB0EDBCFE9FFFC0E65
:10303000DBCFEAFF180EEECFDBFF190EEECFDBFF82
:103040001A0EEECFDBFF1B0EEECFDBFF1C0EDB6A92
:10305000060EF36E1D0EF3CFDBFFF90EDBCF08F08B
:10306000FA0EDBCF09F01E0E08C0DBFF1F0E09C0F1
:10307000DBFF1E0EDBCFE6FF1F0EDBCFE6FFDEEC35
:103080007EF0E552E5521E0EF3CFDBFF1F0EF4CFAC
:10309000DBFF0C0EE66EE66AD950140FE66E000EEA
:1030A000DA20E66E5BEC7FF0E552E552E552E55240
:1030B000F3CF14F0F4CF15F0141E151E200E14C01B
:1030C000DBFF210E15C0DBFFF90EDBCFE6FFFA0EAA
:1030D000DBCFE6FFACEC8DF0E552E552220EF3CFEC
:1030E000DBFF230EF4CFDBFF200EDBCF14F0210E2D
:1030F000DBCF15F0220EDB50141803E1230EDB505A
:10310000151804E0DCEC8AF0010E71D0000EE66EBA
:10311000E66ADAECB1F0E552E552140EE66EE66AC4
:10312000D9CFE6FFDACFE6FFF0EC8FF0E552E552BB
:10313000E552E552D9CFE6FFDACFE6FFEAEC1FF021
:10314000E552E552D9500C0FE96EDACFEAFFEF50A5
:10315000F00BE842E842E842E842040DF350146EF6
:10316000156A140E145E000E155A240E14C0DBFFEF
:10317000DB50166E176AF90EDBCF08F0FA0EDBCFC4
:1031800009F01650085C146E17500958156E140E8D
:10319000145E000E155AF90E14C0DBFFFA0E15C0AE
:1031A000DBFFFD0EDBCFE6FFFE0EDBCFE6FFD9CF68
:1031B000E6FFDACFE6FFDBEC1CF0E552E552E55224
:1031C000E552000910E0F90EDBCFE6FFFA0EDBCF87
:1031D000E6FFD9CFE6FFDACFE6FFFFEC21F0E552BC
:1031E000E552E552E552DCEC8AF0010E00D0146E97
:1031F000250EE15C02E2E16AE552E16E1450E5520F
:10320000E7CFD9FF1200D9CFE6FFE1CFD9FF280ED3
:10321000E126B9EC00F0FE0EDBA004D00101A98785
:10322000FE0EDB900101A89BA89DA89FA993A995DC
:10323000A991BFEC8AF0000901E1FBD7FE0EDB503B
:10324000060B05E0260EDB6A270EDB6A57D101016B
:103250007651971902E17751981905E1260EDB6A3C
:10326000270EDB6A2FD19751765D9851775952E23C
:103270007651975D146E98517755156E260E14C0D1
:10328000DBFF270E15C0DBFF260EDBCF14F0270E69
:10329000DBCF15F014507C5D15507D5906E2260EEB
:1032A0007CC1DBFF270E7DC1DBFF260EDBCF14F0D8
:1032B000270EDBCF15F014508D5D15508E5907E2A7
:1032C000260E8DC1DBFF270E8EC1DBFFA985260EE2
:1032D000DBCFE6FF270EDBCFE6FFACC1E6FF76C112
:1032E000E6FF77C1E6FFE66A860EE66E0A0EE66E38
:1032F000E5EC2DF0146E080EE15E1450260EDBCFC7
:1033000008F0270EDBCF09F008500101762709509D
:103310007723D8D07651935D146E94517755156EFE
:10332000240E14C0DBFF250E15C0DBFF240EDB507E
:1033300097250001166E250EDB5001019821000132
:10334000176E01019151165C146E92511758156E4B
:10335000260E14C0DBFF270E15C0DBFF260EDBCFC9
:1033600014F0270EDBCF15F014507C5D15507D59FD
:1033700006E2260E7CC1DBFF270E7DC1DBFF260E99
:10338000DBCF14F0270EDBCF15F014508D5D1550F8
:103390008E5907E2260E8DC1DBFF270E8EC1DBFFA3
:1033A000A985240EDBCF14F0250EDBCF15F0260EF9
:1033B000DBCF16F0270EDBCF17F01450165C15503C
:1033C00017580CE2260EDBCF08F0270EDBCF09F0F2
:1033D000240E08C0DBFF250E09C0DBFF240EDBCF67
:1033E000E6FF250EDBCFE6FFACC1E6FF76C1E6FFC8
:1033F00077C1E6FFE66A860EE66E0A0EE66EE5EC3B
:103400002DF0146E080EE15E1450260EDBCF16F080
:10341000270EDBCF17F0240EDB50165C146E250E42
:10342000DB501758156E240E14C0DBFF250E15C097
:10343000DBFFD950240FE96EDACFEAFFEE50ED1032
:1034400027E0240EDBCFE6FF250EDBCFE6FFACC185
:10345000E6FF91C1E6FF92C1E6FFE66A01017651FF
:10346000935D146E94517755156E166A176A860E21
:1034700014260A0E1522000E1622172214C0E6FF8B
:1034800015C0E6FFE5EC2DF0186E080EE15E185051
:10349000260EDBCF08F0270EDBCF09F00850010124
:1034A0007627095077239351765D945177590AE333
:1034B0009151935D146E94519255156E1450765F30
:1034C0001550775BA9A71AD0260EDBCF14F0270E74
:1034D000DBCF15F07C51141802E17D5115180EE078
:1034E000260EDBCF16F0270EDBCF17F08D51161806
:1034F00002E18E51171802E0FE0EDB80D950260F34
:10350000E96EDACFEAFFEE50ED1004E1FE0EDB507B
:10351000030B30E0260EDBCF08F0270EDBCF09F0DF
:10352000085001017C5F09507D5BD950260FE96E80
:10353000DACFEAFFEE50ED1002E0FE0EDB86FD0E64
:10354000DBA007D08F6BF20E6A6F9E0E6B6F6C6BF9
:103550006D6BE0ECBAF0065001016A259F6F0750D1
:103560006B21A06F08506C21A16F09506D21A26FD3
:10357000A8893ED0FD0EDBA21FD0A80EE96E010E79
:10358000EA6EEF50070BE82AF36EF350070BF36E69
:10359000F46EF80EEF14F310EF6EF45001016E07A5
:1035A000000E6F5B705B715B010EF36E260EF3CF46
:1035B000DBFF270EDB6A1CD00101A8A919D0DBB004
:1035C00008D08F5106E08F07D8906D336C336B3382
:1035D0006A33E0ECBAF0065001016A259F6F07508C
:1035E0006B21A06F08506C21A16F09506D21A26F53
:1035F000020E7AC1DBFF030E7BC1DBFF040E78C134
:10360000DBFF050E79C1DBFF060E6EC1DBFF070E87
:103610006FC1DBFF080E70C1DBFF090E71C1DBFF5C
:103620000A0E72C1DBFF0B0E73C1DBFF0C0E74C1FF
:10363000DBFF0D0E75C1DBFF0F0EDB9CDB9E0E0E5C
:10364000DB90DB92DB94DB96FE0EDB50E76E0F0E19
:10365000E7CFDBFF140EDB6A150EDB6A260EDBCF2D
:1036600014F0270EDBCF15F00001145001016E2776
:103670000001155001016F23000E70237123FE0E0F
:10368000DBA21DD0DBB808D00A0EDB6A0B0EDB6AAA
:103690000C0EDB6A0D0EDB6A8CA30BD0D950060F23
:1036A000E96EDACFEAFFEE06000EEE5AEE5AEE5A57
:1036B00006D06E2B000E6F23702371238C83FE0EB9
:1036C000DBB08C819D519B5D9E519C5919E39351B8
:1036D000955D166E96519455176E9D519B5D186EB3
:1036E0009C519E55196E1850165C146E195017583F
:1036F000156E100E14C0DBFF110E15C0DBFF0FD0CE
:103700009B519D5D146E9E519C55156E1406000EC6
:10371000155A100E14C0DBFF110E15C0DBFF24EC90
:103720008BF0F3CFDEFFF4CFDDFFDECF14F0DDCF83
:1037300015F0400E145C000E155803E2DE6ADD6AD7
:1037400008D0D9CFE9FFDACFEAFF400EEE5E000ED7
:10375000ED5A100EDBCF14F0110EDBCF15F0DECFDB
:1037600016F0DDCF17F01450165C155017580AE20A
:10377000D9CFE9FFDACFEAFF100EEECFDBFF110E53
:10378000EDCFDBFFD950020FE66E000EDA20E66EB9
:10379000EAEC1FF0E552E552D950260FE96EDACF78
:1037A000EAFF140EEE26000EED220E0EDB88DB9AE9
:1037B000DB8CDB9EFE0EDBA236D0D950260FE96EE5
:1037C000DACFEAFF040EEE26000EED22020EF36EB3
:1037D000160EF3CFDBFF040EF36E170EF3CFDBFFF5
:1037E000020EF36E180EF3CFDBFFF36E190EF3CF5C
:1037F000DBFF010E146ED9500E0FE96EDACFEAFF2F
:10380000EF50F00BE842E842E842E84214240F0B84
:10381000F36EF46EF346F346F346F3460F0EEF14E1
:10382000F310EF6EF4501A0E00CEDBFF1B0E01CE2C
:10383000DBFF1C0E02CEDBFF1D0E03CEDBFF1E0ED8
:1038400080C1DBFF1F0E81C1DBFF200E82C1DBFFC9
:10385000210E83C1DBFF220EDB6A060EF36E230E00
:10386000F3CFDBFF260EDBCF08F0270EDBCF09F00E
:10387000240E08C0DBFF250E09C0DBFF240EDBCFC2
:10388000E6FF250EDBCFE6FFDEEC7EF0E552E552EB
:10389000240EF3CFDBFF250EF4CFDBFF0C0EE66E1C
:1038A000E66AD9501A0FE66E000EDA20E66E5BEC7F
:1038B0007FF0E552E552E552E552F3CF14F0F4CF34
:1038C00015F0141E151E120E14C0DBFF130E15C0CA
:1038D000DBFF5E0EE66E0A0EE66E05EC8DF0E5523D
:1038E000E552260EDBCFE6FF270EDBCFE6FF060E06
:1038F000E66E800EE66E010EE66E28ECB1F0146EF8
:10390000050EE15E1450140EE66EE66AD950020F01
:10391000E66E000EDA20E66E4DEC90F0E552E552D0
:10392000E552E552FE0EDBA20FD0040EE66EE66A0B
:10393000D950160FE66E000EDA20E66E4DEC90F0D0
:10394000E552E552E552E552720EE66E0A0EE66E5B
:1039500028EC8DF0E552E552260EDBCFE6FF270E70
:10396000DBCFE6FFACEC8DF0E552E552F3CFDEFFA6
:10397000F4CFDDFF820EE66E0A0EE66E05EC8DF0EA
:10398000E552E552020EE66EE66AD9CFE6FFDACFDF
:10399000E6FF4DEC90F0E552E552E552E552AAEC17
:1039A0008CF0280EE15C02E2E16AE552E16EE5523C
:1039B000E7CFD9FF1200D9CFE6FFE1CFD9FF060E3E
:1039C000E126FD0EDBCFE9FFFE0EDBCFEAFF020EA4
:1039D000E926000EEA22EE50ED1002E1000EEED2D2
:1039E000DE52FE0EDD6EFB0EDBCFE9FFFC0EDBCF01
:1039F000EAFF020EE926000EEA22EECF1AF0EFCF20
:103A00001BF0FB0EDBCFE9FFFC0EDBCFEAFF1A5009
:103A1000EE24186E1B50EE20196EFD0EDBCFE9FF71
:103A2000FE0EDBCFEAFF1850EE24166E1950EE2082
:103A3000176EFD0EDBCFE9FFFE0EDBCFEAFF020EB5
:103A4000E926000EEA221650EE18146E1750EE18F2
:103A5000156E020E14C0DBFF030E15C0DBFFDF6A1C
:103A6000DF50146E156A020E145C000E155872E2D7
:103A7000DFCFE6FF6AEC00F0E5520D0E0101A75D15
:103A800002E166D029D0040EA75D19E1FD0EDBCF5F
:103A9000E9FFFE0EDBCFEAFF020EE926000EEA2266
:103AA000EECF14F0EFCF15F01450AA1902E1155023
:103AB000AB1903E1010EDFCFDBFF4AD00DD0AAC165
:103AC00014F0ABC115F0020EDB50141803E1030E25
:103AD000DB50151801E03CD0B9EC00F0FD0EDBCF57
:103AE000E9FFFE0EDBCFEAFF020EE926000EEA2216
:103AF000EECF14F0EFCF15F001017A51141802E166
:103B00007B51151825E1FD0EDBCFE9FFFE0EDBCF63
:103B1000EAFFEECF16F0EFCF17F07851161802E15A
:103B20007951171815E1FB0EDBCFE9FFFC0EDBCF57
:103B3000EAFFEE50801909E1EE50811906E1EE50DE
:103B4000821903E1EE50831900E102E1010E36D241
:103B5000DF2A86D7010EDB50FE0843E0010EDBCFE3
:103B6000E6FF6AEC00F0E552B9EC00F0010EDB5024
:103B7000FE0837E0020EDBCFAAF1030EDBCFABF17C
:103B80000A0EE66EE66AFB0EDBCFE6FFFC0EDBCF2D
:103B9000E6FF800EE66E010EE66E83ECB4F0146E66
:103BA000060EE15E1450FD0EDBCFE9FFFE0EDBCF0B
:103BB000EAFFEECF78F1EDCF79F1FD0EDBCFE9FF33
:103BC000FE0EDBCFEAFF020EE926000EEA22EECF60
:103BD0007AF1EDCF7BF191C176F192C177F1010ECF
:103BE000EDD1FD0EDBCFE9FFFE0EDBCFEAFF0D0EC0
:103BF000E926000EEA22EF50020B02E1000EDED1B0
:103C00000101F151F21102E0000ED8D1040EDB6A7D
:103C1000050EDB6A040EDBCF14F0050EDBCF15F0CA
:103C2000030E145C000E155801E3CFD0040EDBCF59
:103C3000E9FF050EDBCFEAFF140EEA02F3CFEAFF3D
:103C4000E902F3CFE9FFF450EA26B90EE926010EA6
:103C5000EA22100EE926000EEA22EE50ED1001E1F4
:103C6000B4D0040EDBCFE9FF050EDBCFEAFF140E64
:103C7000EA02F3CFEAFFE902F3CFE9FFF450EA26C4
:103C8000B90EE926010EEA22100EE926000EEA22FC
:103C9000EECF14F0EFCF15F0FD0EDBCFE9FFFE0EF7
:103CA000DBCFEAFF020EE926000EEA22EECF16F085
:103CB000EFCF17F01650141802E11750151801E055
:103CC0007ED0040EDBCFE9FF050EDBCFEAFF140E3A
:103CD000EA02F3CFEAFFE902F3CFE9FFF450EA2664
:103CE000B90EE926010EEA220A0EE926000EEA22A2
:103CF000EECF14F0EFCF15F0FD0EDBCFE9FFFE0E97
:103D0000DBCFEAFFEECF16F0EFCF17F01650141806
:103D100002E11750151801E052D0FB0EDBCFE9FF8E
:103D2000FC0EDBCFEAFFEECF14F0EECF15F0EECFB6
:103D300016F0EFCF17F0040EDBCFE9FF050EDBCF57
:103D4000EAFF140EEA02F3CFEAFFE902F3CFE9FF3C
:103D5000F450EA26B90EE926010EEA22EE500001DF
:103D6000141809E1EE50151806E1EE50161803E19B
:103D7000EE50171800E101E022D007ECBBF006C0BE
:103D800014F007C015F0040EDBCFE9FF050EDBCF02
:103D9000EAFF140EEA02F3CFEAFFE902F3CFE9FFEC
:103DA000F450EA26B90EE926010EEA22120EE9269F
:103DB000000EEA2214C0EEFF15C0EDFFFFD0040E86
:103DC000DB2A050E01E3DB2A25D7DF6ADF50146EFC
:103DD000156A020E145C000E155801E3EDD0DFCF1A
:103DE000E6FF6AEC00F0E5520101A8A7E3D0B9ECC8
:103DF00000F0FD0EDBCFE9FFFE0EDBCFEAFF020E87
:103E0000E926000EEA22EECF14F0EFCF15F01450A1
:103E100001017A1902E115507B1901E0CBD00A0E9D
:103E2000E66EE66AFB0EDBCFE6FFFC0EDBCFE6FFBD
:103E3000040EDBCFE9FF050EDBCFEAFF140EEA022A
:103E4000F3CFEAFFE902F3CFE9FFF450EA26B90E17
:103E5000E926010EEA22E9CF14F0EACF15F014C0EA
:103E6000E6FF15C0E6FF83ECB4F0166E060EE15EC9
:103E70001650FD0EDBCFE9FFFE0EDBCFEAFFEECFE3
:103E800014F0EFCF15F0040EDBCFE9FF050EDBCF0A
:103E9000EAFF140EEA02F3CFEAFFE902F3CFE9FFEB
:103EA000F450EA26B90EE926010EEA220A0EE926A6
:103EB000000EEA2214C0EEFF15C0EDFFFD0EDBCFB1
:103EC000E9FFFE0EDBCFEAFF040EE926000EEA2230
:103ED000EECF14F0EECF15F0EECF16F0EFCF17F0D7
:103EE000040EDBCFE9FF050EDBCFEAFF140EEA027A
:103EF000F3CFEAFFE902F3CFE9FFF450EA26B90E67
:103F0000E926010EEA220C0EE926000EEA2214C070
:103F1000EEFF15C0EEFF16C0EEFF17C0EEFFFD0E60
:103F2000DBCFE9FFFE0EDBCFEAFF020EE926000E33
:103F3000EA22EECF14F0EFCF15F0040EDBCFE9FF4D
:103F4000050EDBCFEAFF140EEA02F3CFEAFFE90227
:103F5000F3CFE9FFF450EA26B90EE926010EEA2272
:103F6000100EE926000EEA2214C0EEFF15C0EDFF88
:103F700007ECBBF006C014F007C015F0040EDBCF51
:103F8000E9FF050EDBCFEAFF140EEA02F3CFEAFFEA
:103F9000E902F3CFE9FFF450EA26B90EE926010E53
:103FA000EA22120EE926000EEA2214C0EEFF15C026
:103FB000EDFF04D0DF2A0AD7000E00D0146E060EE3
:103FC000E15C02E2E16AE552E16E1450E552E7CFAE
:103FD000D9FF1200D9CFE6FFE1CFD9FFFD0EDBCF2D
:103FE000E9FFFE0EDBCFEAFFEECFE6FFEFCFE6FF05
:103FF000DEEC7EF0E552E552F3CF14F0F4CF15F08D
:10400000FD0EDBCFE9FFFE0EDBCFEAFF14C0EEFFB3
:1040100015C0EDFFFD0EDBCFE9FFFE0EDBCFEAFFA3
:10402000020EE926000EEA22EECFE6FFEFCFE6FF12
:10403000DEEC7EF0E552E552F3CF14F0F4CF15F04C
:10404000FD0EDBCFE9FFFE0EDBCFEAFF020EE92615
:10405000000EEA2214C0EEFF15C0EDFFFD0EDBCF0F
:10406000E9FFFE0EDBCFEAFF040EE926000EEA228E
:10407000EECFE6FFEECFE6FFEECFE6FFEFCFE6FFB7
:1040800008EC7FF0E552E552E552E55206C014F027
:1040900007C015F008C016F009C017F0FD0EDBCF01
:1040A000E9FFFE0EDBCFEAFF040EE926000EEA224E
:1040B00014C0EEFF15C0EEFF16C0EEFF17C0EEFFF6
:1040C000FD0EDBCFE9FFFE0EDBCFEAFF080EE9268F
:1040D000000EEA22EECFE6FFEECFE6FFEECFE6FFE0
:1040E000EFCFE6FF08EC7FF0E552E552E552E552EE
:1040F00006C014F007C015F008C016F009C017F08C
:10410000FD0EDBCFE9FFFE0EDBCFEAFF080EE9264E
:10411000000EEA2214C0EEFF15C0EEFF16C0EEFF3F
:1041200017C0EEFFFD0EDBCFE9FFFE0EDBCFEAFF8F
:104130000E0EE926000EEA22EECFE6FFEFCFE6FFF5
:10414000DEEC7EF0E552E552F3CF14F0F4CF15F03B
:10415000FD0EDBCFE9FFFE0EDBCFEAFF0E0EE926F8
:10416000000EEA2214C0EEFF15C0EDFFFD0EDBCFFE
:10417000E9FFFE0EDBCFEAFF100EE926000EEA2271
:10418000EECFE6FFEFCFE6FFDEEC7EF0E552E55244
:10419000F3CF14F0F4CF15F0FD0EDBCFE9FFFE0EE8
:1041A000DBCFEAFF100EE926000EEA2214C0EEFF74
:1041B00015C0EDFFFD0EDBCFE9FFFE0EDBCFEAFF02
:1041C000120EE926000EEA22EECFE6FFEFCFE6FF61
:1041D000DEEC7EF0E552E552F3CF14F0F4CF15F0AB
:1041E000FD0EDBCFE9FFFE0EDBCFEAFF120EE92664
:1041F000000EEA2214C0EEFF15C0EDFFE552E7CF36
:10420000D9FF1200B9EC00F07AC1AAF17BC1ABF181
:1042100091C197F192C198F191C199F192C19AF12E
:1042200093C19BF194C19CF193C19DF194C19EF106
:104230000101A851080B02E0040E01D00D0EA76F7A
:10424000A891A893A895A899A89BA89DA89FA99173
:10425000A993A995A997A9898C918C938C978C99EE
:1042600091C176F192C177F14BEC78F0F3CF6EF11A
:10427000F4CF6FF14BEC78F0F3CF70F1F4CF71F134
:1042800001018A698B69010E7C6F7D6B1200D9CFA9
:10429000E6FFE1CFD9FF040EE1260C0EE66EE66ADA
:1042A000DAECB1F0E552E552EDEC8FF0DF6EF00E96
:1042B000DF14E840E8403F0B146E156A140E145EDC
:1042C000000E155A1450DF6EDF5005E1180EF36E24
:1042D000020EF46E8AD0070EE66EE66A000EE66EF7
:1042E000E66AF0EC8FF0E552E552E552E552DF5018
:1042F000DF06000975E0EDEC8FF0E76E010EE7CF09
:10430000DBFFDB5001E16CD0010EDB0401E1EFD7F4
:10431000010EDB50020845E1030EDF5C01E260D0D4
:10432000020EDB6A030EDB6AEDEC8FF0E76E010E26
:10433000E7CFDBFFDB5004080CE1EDEC8FF0E76E1C
:10434000030EE7CFDBFFEDEC8FF0E76E020EE7CF59
:10435000DBFF020EDBCF14F0030EDBCF15F0180EDF
:10436000145C020E155801E23BD0D950020FE96EE1
:10437000DACFEAFFB40ED880EE54050EED5406E213
:10438000B40EF36E050EF46E30D029D0020EDBCFE2
:1043900014F0030EDBCF15F014C0F3FF15C0F4FFCB
:1043A00024D0020EDF5C01E21BD0EDEC8FF0E76E53
:1043B000010EE7CFDBFFDB50DF5C01E211D0010E25
:1043C000DBCFE6FFE66A000EE66EE66AF0EC8FF001
:1043D000E552E552E552E552010EDB50DF5E87D72C
:1043E000180EF36E020EF46E00D0040EE15C02E2D1
:1043F000E16AE552E16EE552E7CFD9FF1200D9CF6D
:10440000E6FFE1CFD9FF1C0EE126FD0EDBCFE9FF71
:10441000FE0EDBCFEAFF0D0EE926000EEA220E0E9D
:10442000EFCFDBFFFD0EDBCFE9FFFE0EDBCFEAFFB8
:10443000080EE926000EEA220F0EEECFDBFF100E6B
:10444000EECFDBFF110EEECFDBFF120EEECFDBFF68
:10445000FD0EDBCFE9FFFE0EDBCFEAFF040EE926FF
:10446000000EEA22130EEECFDBFF140EEECFDBFFC1
:10447000150EEECFDBFF160EEECFDBFF0101A8918C
:10448000A893A895A8B913D0E0ECBAF006C09FF1A4
:1044900007C0A0F108C0A1F109C0A2F1740E01018A
:1044A0009F27350EA023060EA123000EA223A7519D
:1044B000050A5CE0010A15E0FB0EDBCF08F0FC0EFC
:1044C000DBCF09F0170E08C0DBFF180E09C0DBFFB9
:1044D0000E0EDBA0EAD0170EDB2A180E01E2E5D0A3
:1044E000E3D00E0EDBA403D08DDE3BEF2CF0DBA877
:1044F00016D00F0EDBCF6EF1100EDBCF6FF1110E69
:10450000DBCF70F1120EDBCF71F1E66A040EE66EBE
:1045100003EC19F0E552E55275DE3BEF2CF0DBA21F
:1045200022D0130EDBCF72F1140EDBCF73F1150E18
:10453000DBCF74F1160EDBCF75F1722B000E7323F7
:1045400074237523A4DEF3CF8DF1F4CF8EF1010E29
:10455000E66E120EE66E03EC19F0E552E55201012B
:10456000060EA76F01D04EDE3BEF2CF00E0EDBA443
:1045700002D03BEF2CF0DBA840D0D9500F0FE96EF2
:10458000DACFEAFFEE506E1909E1EE506F1906E13D
:10459000EE50701903E1EE50711900E12EE0130E98
:1045A0006EC1DBFF140E6FC1DBFF150E70C1DBFFA8
:1045B000160E71C1DBFF0F0EDBCF6EF1100EDBCFDD
:1045C0006FF1110EDBCF70F1120EDBCF71F1010E26
:1045D000E66E040EE66E03EC19F0E552E552130E9A
:1045E000DBCF6EF1140EDBCF6FF1150EDBCF70F168
:1045F000160EDBCF71F13BEF2CF00E0EDBA252D08A
:10460000130EDBCF72F1140EDBCF73F1150EDBCF7F
:1046100074F1160EDBCF75F1722B000E7323742329
:104620007523FD0EDBCFE9FFFE0EDBCFEAFF0E0E9A
:10463000E926000EEA22EECF7CF1EDCF7DF127DEF8
:10464000F3CF8DF1F4CF8EF10E0EDBA820D0010E4A
:10465000E66E100EE66E03EC19F0E552E55201012C
:10466000070EA76FE0ECBAF006C09FF107C0A0F1FB
:1046700008C0A1F109C0A2F1740E01019F27350EF7
:10468000A023060EA123000EA223A8990BD0010E91
:10469000E66E120EE66E03EC19F0E552E5520101EA
:1046A000060EA76F3BEF2CF0DB2A0E0EDBA205D027
:1046B000170EDB2A180E01E3DB2A9D519B5D9E51EC
:1046C0009C5919E39351955D166E96519455176E4A
:1046D0009D519B5D186E9C519E55196E1850165C2D
:1046E000146E19501758156E0C0E14C0DBFF0D0E0A
:1046F00015C0DBFF0FD09B519D5D146E9E519C55E4
:10470000156E1406000E155A0C0E14C0DBFF0D0EAC
:1047100015C0DBFFD950130FE96EDACFEAFF7251F3
:10472000EE5C146E7351EE58156E7451EE58166EA1
:104730007551EE58176E060E14C0DBFF070E15C03C
:10474000DBFF080E16C0DBFF090E17C0DBFF060EED
:10475000DBCF08F0070EDBCF09F00A0E08C0DBFF45
:104760000B0E09C0DBFF190EDB6AD950170FE96E7B
:10477000DACFEAFFEE50ED1001E1C3D0D9500C0FB3
:10478000E96EDACFEAFFEE50ED1001E1B9D0D95071
:10479000060FE96EDACFEAFFD890030EEB50000A5D
:1047A00008E6000EEE5C000EEE58000EEE58000E0D
:1047B000EE581CE30C0EDBCF14F00D0EDBCF15F022
:1047C000166A176AD950060FE96EDACFEAFF14505D
:1047D000EE5C1550EE581650EE581750EE5806E2A3
:1047E000010EF36E190EF3CFDBFF53D0170EDBCFA4
:1047F00014F0180EDBCF15F0166A176AD950060FA1
:10480000E96EDACFEAFFEE501426EE501522EE5094
:104810001622EE5017221734000E171809E6D8801A
:10482000000E1454000E1554000E1654000E1754AA
:1048300030E20C0EDBCF1CF00D0EDBCF1DF0170E9F
:10484000DB501C5C186E180EDB501D58196E1A6A6E
:104850001B6A19AE02D01A681B68D950060FE96EA0
:10486000DACFEAFF030EEBCFF3FF1B50F318E8AEED
:1048700002D0F33408D0EE50185CEE501958EE50C8
:104880001A58EE501B5805E3010EF36E190EF3CFC4
:10489000DBFF0C0EDBCF14F00D0EDBCF15F0166A2C
:1048A000176AD950060FE96EDACFEAFF030EEB5014
:1048B0001718E8AE02D0173408D01450EE5C15502B
:1048C000EE581650EE581750EE581AE2170EDBCF7E
:1048D0001AF0180EDBCF1BF00A0EDB501A24186EEC
:1048E0000B0EDB501B20196E193404E2185000081F
:1048F000000E195405E2010EF36E190EF3CFDBFF23
:1049000045D0060EDBCF14F0070EDBCF15F0080EF6
:10491000DBCF16F0090EDBCF17F014501510161070
:10492000171006E1010EF36E190EF3CFDBFF2ED048
:10493000D950060FE96EDACFEAFFD890030EEB509C
:10494000000A08E6000EEE5C000EEE58000EEE586F
:10495000000EEE581BE30C0EDBCF14F00D0EDBCF78
:1049600015F0166A176AD950060FE96EDACFEAFF1A
:104970001450EE5C1550EE581650EE581750EE5885
:1049800005E2010EF36E190EF3CFDBFF190EDB50BB
:104990000DE10E0EDBB408D0010EE66E100EE66ED1
:1049A00003EC19F0E552E5523BEF2CF00E0EDB5014
:1049B000060B03E027DC3BEF2CF00E0EDBB802D039
:1049C0003BEF2CF0A7510C0A01E129D30B0A4DE073
:1049D0000F0A4BE0010A49E0020A47E0010A45E0FC
:1049E0000C0A01E03FD3D9500F0FE96EDACFEAFF8E
:1049F000EE506E1909E1EE506F1906E1EE50701994
:104A000003E1EE50711900E12EE0130E6EC1DBFFE1
:104A1000140E6FC1DBFF150E70C1DBFF160E71C1E6
:104A2000DBFF0F0EDBCF6EF1100EDBCF6FF1110E3F
:104A3000DBCF70F1120EDBCF71F1010EE66E040ECA
:104A4000E66E03EC19F0E552E552130EDBCF6EF182
:104A5000140EDBCF6FF1150EDBCF70F1160EDBCF2E
:104A600071F13BEF2CF0070EA76F7651975D146E36
:104A700098517755156E040E14C0DBFF050E15C056
:104A8000DBFF040EDBCF14F0050EDBCF15F00001C9
:104A9000800E151410E001019151935D146E945134
:104AA0009255156ED950040FE96EDACFEAFF145013
:104AB000EE261550ED22040EDBCF14F0050EDBCFF1
:104AC00015F0166A176A6E0EE96E010EEA6EEE5068
:104AD0001426EE501522EE501622EE50172214C066
:104AE000DFFF010E15C0DBFF020E16C0DBFF030E59
:104AF00017C0DBFF0F0EDBCF18F0100EDBCF19F065
:104B0000110EDBCF1AF0120EDBCF1BF0D9CFE9FF6D
:104B1000DACFEAFFEE50185C146EEE501958156E9D
:104B2000EE501A58166EEE501B58176E14C0DFFF69
:104B3000010E15C0DBFF020E16C0DBFF030E17C00F
:104B4000DBFFDECF07F0DECF08F0DECF09F0DDCFF0
:104B50000AF0DD52DD520A34000E0A1809E6D88048
:104B6000000E0754000E0854000E0954000E0A549B
:104B700025E201018C51010B0DE0D9CFE9FFDACF1D
:104B8000EAFF010EEE1805E1EE5003E1EE5001E1FF
:104B9000EE500AE0E66A100EE66E03EC19F0E552FC
:104BA000E5523BEF2CF00AD0D9500F0FE96EDACF67
:104BB000EAFFEE06000EEE5AEE5AEE5A0101995146
:104BC000765D186E77519A55196E1A6A1B6A19AE7E
:104BD00002D01A681B6818506E5D146E19506F5918
:104BE000156E1A507059166E1B507159176E14C0FD
:104BF000DFFF010E15C0DBFF020E16C0DBFF030E48
:104C000017C0DBFF9951765D9A51775914E29151A3
:104C1000935D146E94519255156E166A176AD9CF2A
:104C2000E9FFDACFEAFF1450EE5E1550EE5A165047
:104C3000EE5A1750EE5A0F0EDBCF18F0100EDBCFE6
:104C400019F0110EDBCF1AF0120EDBCF1BF0D9CF0B
:104C5000E9FFDACFEAFFEE50185C146EEE501958F7
:104C6000156EEE501A58166EEE501B58176E14C083
:104C7000DFFF010E15C0DBFF020E16C0DBFF030EC7
:104C800017C0DBFFDECF07F0DECF08F0DECF09F084
:104C9000DDCF0AF0DD52DD520A34000E0A1809E6B3
:104CA000D880000E0754000E0854000E0954000E60
:104CB0000A5401E3A2D09151935D146E9451925520
:104CC000156E166A176AD9CFE9FFDACFEAFFEE5000
:104CD000145CEE501558EE501658EE50175801E27D
:104CE0008CD08C978C99A991040E99C1DBFF050E8D
:104CF0009AC1DBFFD9CFE9FFDACFEAFFEE5099275F
:104D0000EE509A23040EDBCF14F0050EDBCF15F026
:104D10001450765D155077591BE39951765D9A5181
:104D2000775915E27651995D146E9A517755156E43
:104D30000001145001016E270001155001016F237D
:104D4000000E7023712399C176F19AC177F136D0A4
:104D50009151935D166E94519255176E76511624AB
:104D6000146E77511720156E040E14C0DBFF050E6C
:104D700015C0DBFF040EDBCF14F0050EDBCF15F002
:104D80009951145C9A51155819E2040EDB50995D43
:104D90000001146E050EDB5001019A590001156ED9
:104DA000145001016E270001155001016F23000E00
:104DB0007023712399C176F19AC177F19351995D6E
:104DC00094519A590AE39151935D146E94519255FE
:104DD000156E1450995F15509A5B9351765D9451FE
:104DE00077590AE39151935D146E94519255156E63
:104DF0001450765F1550775B3ED07651991902E1D9
:104E000077519A1938E08CA735D08CA932D09951B6
:104E1000765D146E77519A55156E166A176A15AE3F
:104E200002D01668176814506E5F15506F5B1650ED
:104E3000705B1750715B9951765D9A51775914E206
:104E40009151935D146E94519255156E166A176ABE
:104E500015AE02D01668176814506E5F15506F5B60
:104E60001650705B1750715B99C176F19AC177F15A
:104E7000A9858C898C879751991902E198519A19C3
:104E80002EE1A9B715D0E0ECBAF006C09FF107C03B
:104E9000A0F108C0A1F109C0A2F1740E01019F2781
:104EA000350EA023060EA123000EA223A89917D029
:104EB000D9500F0FE96EDACFEAFF6E51EE1809E113
:104EC0006F51EE1806E17051EE1803E17151EE18C2
:104ED00000E105E18C51010B02E0A899A997D95096
:104EE0000F0FE96EDACFEAFFEE506E5D166EEE50F0
:104EF0006F59176EEE507059186EEE507159196E49
:104F0000FD0EDBCFE9FFFE0EDBCFEAFF0E0EE9263A
:104F1000000EEA221650EE5C146E1750EE58156E15
:104F20001A0E14C0DBFF1B0E15C0DBFF7C517D1178
:104F300009E1D9501A0FE96EDACFEAFFEE50ED1011
:104F400001E0A9831A0EDBCF7CF11B0EDBCF7DF1D4
:104F5000080EA75D2CE1D9500F0FE96EDACFEAFFFA
:104F60006E51EE1809E16F51EE1806E17051EE181E
:104F700003E17151EE1800E119E18C51010B16E0CB
:104F8000E0ECBAF006C09FF107C0A0F108C0A1F1A3
:104F900009C0A2F1BA0E01019F271A0EA023030E29
:104FA000A123000EA223A889090EA76F37D0090EEE
:104FB000A75D1BE10E0EDBB017D00F0EDBCF6EF13D
:104FC000100EDBCF6FF1110EDBCF70F1120EDBCFC5
:104FD00071F1E66A140EE66E03EC19F0E552E55243
:104FE00002EC21F03BEF2CF019D00A0EA75D16E180
:104FF000D9500F0FE96EDACFEAFF6E51EE1809E1D2
:105000006F51EE1806E17051EE1803E17151EE1880
:1050100000E102E102EC21F03BEF2CF024D06EC164
:1050200014F06FC115F070C116F071C117F0142A99
:10503000000E152216221722D9500F0FE96EDACF73
:10504000EAFF1450EE1809E11550EE1806E116506B
:10505000EE1803E11750EE1800E102E102EC21F036
:105060003BEF2CF000D00E0EDBAA02D03BEF2CF071
:105070000B0EA75D02E13BEF2CF00A0EA75D02E1EB
:105080003BEF2CF00C0EA75D02E13BEF2CF0D9506A
:10509000FB0FE96EFF0EDA20EA6EEE50ED1001E133
:1050A00031D30A0EDBCF14F00B0EDBCF15F0153425
:1050B00004E214500008000E155401E250D1FD0E18
:1050C000DBCFE9FFFE0EDBCFEAFF0C0EE926000E78
:1050D000EA22EF50F00BE842E842E842E842040DD1
:1050E000F350166E176A0A0EDB50165C146E0B0E28
:1050F000DB501758156E14C0E6FF15C0E6FFDAEC5A
:10510000B1F0E552E5520A0EDBCF14F00B0EDBCF07
:1051100015F0D950FB0FE96EFF0EDA20EA6E14503D
:10512000EE261550ED22FB0EDBCF14F0FC0EDBCF8C
:1051300015F00C0EDBCF16F00D0EDBCF17F0145070
:10514000165C155017580CE20C0EDBCF08F00D0E54
:10515000DBCF09F0FB0E08C0DBFFFC0E09C0DBFF54
:10516000FB0EDBCF14F0FC0EDBCF15F0000114506A
:10517000010172270001155001017323000E7423F1
:105180007523FB0EDB509B250001146EFC0EDB50DB
:1051900001019C210001156E01011450955D15500F
:1051A00096595CE29B51955D146E96519C55156E17
:1051B000010E1426000E1522040E14C0DBFF050E8E
:1051C00015C0DBFF040EDBCFE6FF050EDBCFE6FFED
:1051D000E66AE668E668ACC1E6FF9BC1E6FF9CC1F3
:1051E000E6FFE5EC2DF0146E080EE15E1450FB0EA8
:1051F000DBCF16F0FC0EDBCF17F0040EDB50165C95
:10520000146E050EDB501758156E14C0E6FF15C05E
:10521000E6FFE66AE668E668ACC1E6FF93C1E6FF32
:1052200094C1E6FFE5EC2DF0186E080EE15E185013
:10523000FB0EDBCF16F0FC0EDBCF17F0040EDB50BD
:10524000165C146E050EDB501758156E0101935154
:1052500014249B6F945115209C6F20D0FB0EDBCF44
:10526000E6FFFC0EDBCFE6FFE66AE668E668ACC167
:10527000E6FF9BC1E6FF9CC1E6FFE5EC2DF0146E56
:10528000080EE15E1450FB0EDBCF08F0FC0EDBCF06
:1052900009F0085001019B2709509C238A1D01E158
:1052A0008B1D5CE0FB0EDBCF08F0FC0EDBCF09F0C2
:1052B00008508A5F09508B5B7E518A25146E7F519E
:1052C0008B21156E040E14C0DBFF050E15C0DBFF2D
:1052D000040EDBCF14F0050EDBCF15F00001800EBD
:1052E000151404E001018A698B6938D001018B35FE
:1052F00004E28A510008000E8B5530E3040EDBCF28
:1053000014F0050EDBCF15F00001145001017227D7
:105310000001155001017323000E74237523040E40
:10532000DBCF08F0050EDBCF09F008509B270950B2
:105330009C239B51955D9C5196590EE29351955D2E
:10534000146E96519455156E010E1426000E1522FA
:1053500014509B5F15509C5B8A698B69D3D10A0EF0
:10536000DBCF14F00B0EDBCF15F0153404E2145034
:105370000008000E155401E3C5D10A0EDBCF16F06C
:105380000B0EDBCF17F0FB0EDB501624146EFC0E59
:10539000DB501720156E0C0EDBCF18F00D0EDBCF97
:1053A00019F01450185C1550195814E20C0EDBCF8C
:1053B00016F00D0EDBCF17F00A0EDB50165C146EE4
:1053C0000B0EDB501758156EFB0E14C0DBFFFC0EE6
:1053D00015C0DBFFFD0EDBCFE9FFFE0EDBCFEAFFE2
:1053E0000C0EE926000EEA22EF50F00BE842E842EC
:1053F000E842E842040DF350E66EE66ADAECB1F0FA
:10540000E552E5520A0EDB5001019B250001166EA4
:105410000B0EDB5001019C210001176EFB0EDB50CF
:105420001624146EFC0EDB501720156E010114506B
:10543000955D1550965901E395D09B51955D166E7B
:1054400096519C55176E010E1626000E17220A0E55
:10545000DB50165C146E0B0EDB501758156E040EE5
:1054600014C0DBFF050E15C0DBFF040EDBCF14F00C
:10547000050EDBCF15F00001800E151441E1040E7E
:10548000DBCFE6FF050EDBCFE6FFE66AE668E668FF
:10549000ACC1E6FF0A0EDB5001019B250001146E32
:1054A0000B0EDB5001019C210001156E14C0E6FFBC
:1054B00015C0E6FF8ADB166E080EE15E1650FB0E85
:1054C000DBCF16F0FC0EDBCF17F0040EDB50165CC2
:1054D000146E050EDB501758156E14C0E6FF15C08C
:1054E000E6FFE66AE668E668ACC1E6FF93C1E6FF60
:1054F00094C1E6FF6ADB186E080EE15E185031D0E9
:10550000FB0EDBCFE6FFFC0EDBCFE6FFE66AE668CC
:10551000E668ACC1E6FF0A0EDB5001019B250001E5
:10552000166E0B0EDB5001019C210001176E01016C
:105530009351955D186E96519455196E010E18266B
:10554000000E19221850165C146E19501758156E5B
:1055500014C0E6FF15C0E6FF38DB1A6E080EE15EE8
:105560001A501FD0FB0EDBCFE6FFFC0EDBCFE6FFB1
:10557000E66AE668E668ACC1E6FF0A0EDB509B25EA
:105580000001146E0B0EDB5001019C210001156E11
:1055900014C0E6FF15C0E6FF18DB166E080EE15ECC
:1055A000165001018A1D01E18B1D0DE10A0EDBCFB2
:1055B0008AF10B0EDBCF8BF1FB0EDBCF7EF1FC0E05
:1055C000DBCF7FF19FD00A0EDBCF14F00B0EDBCFC9
:1055D00015F08A51145C8B5115584CE2FB0EDBCF51
:1055E00016F0FC0EDBCF17F00A0EDB501624146EFB
:1055F0000B0EDB501720156E8A517E25186E8B51CD
:105600007F21196E1450185C1550195813E3FB0EC6
:10561000DBCF1CF0FC0EDBCF1DF00A0EDB501C2490
:105620001A6E0B0EDB501D201B6E8A511A5C8B51BB
:105630001B5807E2FB0EDBCF7EF1FC0EDBCF7FF1C8
:1056400012D08A517E25146E8B517F21156E0A0E61
:10565000DB500001145C01017E6F0B0EDB5000017A
:10566000155801017F6F0A0EDBCF8AF10B0EDBCFDD
:105670008BF148D0FB0EDBCF16F0FC0EDBCF17F022
:105680000A0EDB501624146E0B0EDB501720156E1D
:105690008A517E25186E8B517F21196E1450185C2B
:1056A000155019582FE20A0EDBCF14F00B0EDBCF8A
:1056B00015F08A517E25166E8B517F21176E14507E
:1056C000165C155017581EE3FB0EDBCF1AF0FC0ECC
:1056D000DBCF1BF00A0EDB501A24186E0B0EDB50CA
:1056E0001B20196E8A51185C166E8B511958176E53
:1056F0007E51165C146E7F511758156E14507E271C
:1057000015507F23D950170FE96EDACFEAFFEE501C
:10571000ED1023E0070EA75D04E09BC19DF19CC145
:105720009EF1A8AF0BD0010EE66E100EE66E03ECF4
:1057300019F0E552E552B9EC00F00FD0A88FA8BDE2
:105740000CD0A88D07ECBBF006C0A5F107C0A6F1F0
:105750000F0E0101A527000EA6230E0EDBA08BD095
:1057600072C114F073C115F074C116F075C117F051
:10577000142A000E152216221722170EDBCF18F05E
:10578000180EDBCF19F01A6A1B6AD950130FE96E95
:10579000DACFEAFFEE501826EE501922EE501A2208
:1057A000EE501B221450181809E11550191806E183
:1057B00016501A1803E117501B1800E15CE10101B3
:1057C000722B000E732374237523A751090A40E03E
:1057D000010A1EE00F0A0EE0010A01E043D00C0EA0
:1057E000A76F010EE66E110EE66E03EC19F0E5529E
:1057F000E55241D00B0EA76F07ECBBF006C0A5F138
:1058000007C0A6F11F0E0101A527000EA6232BD06D
:10581000D9500F0FE96EDACFEAFF6E51EE1809E1A9
:105820006F51EE1806E17051EE1803E17151EE1858
:1058300000E10BE1E66A100EE66E03EC19F0E552AA
:10584000E55202EC21F017D002D00A0EA76F0BD060
:10585000E66A100EE66E03EC19F0E552E55202EC32
:1058600021F009D000D0010EE66E100EE66E03ECBA
:1058700019F0E552E5521C0EE15C02E2E16AE552E4
:10588000E16EE552E7CFD9FF1200D9CFE6FFE1CFB5
:10589000D9FF060EE126FE0EDB50146E156A020ECD
:1058A000145C000E155802E3000E83D1FE0EDBCF10
:1058B000E6FF6AEC00F0E552D950FC0FE96EFF0EEE
:1058C000DA20EA6EEE50ED1007E1010EF36EFC0EE9
:1058D000F3CFDBFFFD0EDB6A01019151955D146E84
:1058E00096519255156E1406000E155A14C0DEFF1F
:1058F00015C0DDFFFA0EDBCF16F0FB0EDBCF17F085
:10590000FC0EDB501624146EFD0EDB501720156EB6
:10591000DECF18F0DDCF19F01450185C155019586F
:1059200002E2000E46D1B9EC00F0F90EDB50030B99
:1059300003E1F90EDB80DB82FA0EDBCF08F0FB0E11
:10594000DBCF09F0040E08C0DBFF050E09C0DBFF4A
:10595000FA0EDBCF16F0FB0EDBCF17F0FC0EDB50A0
:105960001624146EFD0EDB501720156ED9CFE9FFFB
:10597000DACFEAFF1450EE5E1550ED5AF90EDBA2B5
:1059800020D0DBA011D0DECF14F0DDCF15F0D89001
:1059900015321432D950040FE96EDACFEAFF1450F1
:1059A000EE261550ED220DD0DECF14F0DDCF15F030
:1059B000D950040FE96EDACFEAFF1450EE261550E5
:1059C000ED22040EDB50010191250001146E050E3D
:1059D000DB50010192210001156E010E1426000E0C
:1059E000152214C0DEFF15C0DDFF020E9BC1DBFFD8
:1059F000030E9CC1DBFF01018A1D01E18B1D2DE01F
:105A00008A517E25146E8B517F21156ED950020F5D
:105A1000E96EDACFEAFF1450EE261550ED22020EA1
:105A2000DBCF14F0030EDBCF15F01450955D15504D
:105A3000965913E29351955D146E96519455156ED7
:105A4000010E1426000E1522D950020FE96EDACF8E
:105A5000EAFF1450EE5E1550ED5A020EDBCF14F043
:105A6000030EDBCF15F014509D5D15509E5918E2C2
:105A7000DECF14F0DDCF15F014509D5D15509E590A
:105A80000EE2F90EDBA403D0000E93D008D0DECFD7
:105A90009DF1DDCF9EF1DECF9BF1DDCF9CF12BD0D0
:105AA000020EDBCF14F0030EDBCF15F09D51145C1A
:105AB0009E51155818E2DECF14F0DDCF15F01450CA
